{
  "contractName": "CreateLandNft",
  "abi": [
    {
      "inputs": [
        {
          "internalType": "uint256",
          "name": "",
          "type": "uint256"
        }
      ],
      "name": "landsAddress",
      "outputs": [
        {
          "internalType": "string",
          "name": "name",
          "type": "string"
        },
        {
          "internalType": "address",
          "name": "tokenAddress",
          "type": "address"
        }
      ],
      "stateMutability": "view",
      "type": "function"
    },
    {
      "inputs": [
        {
          "internalType": "string",
          "name": "_name",
          "type": "string"
        },
        {
          "internalType": "string",
          "name": "_symbol",
          "type": "string"
        },
        {
          "internalType": "uint256",
          "name": "_id",
          "type": "uint256"
        }
      ],
      "name": "_mint",
      "outputs": [],
      "stateMutability": "nonpayable",
      "type": "function"
    }
  ],
  "bytecode": "0x608060405234801561001057600080fd5b50613b08806100206000396000f3fe60806040523480156200001157600080fd5b50600436106200003a5760003560e01c80635c895d26146200003f578063eb84fe3d14620001a4575b600080fd5b620001a2600480360360608110156200005757600080fd5b81019080803590602001906401000000008111156200007557600080fd5b8201836020820111156200008857600080fd5b80359060200191846001830284011164010000000083111715620000ab57600080fd5b91908080601f016020809104026020016040519081016040528093929190818152602001838380828437600081840152601f19601f820116905080830192505050505050509192919290803590602001906401000000008111156200010f57600080fd5b8201836020820111156200012257600080fd5b803590602001918460018302840111640100000000831117156200014557600080fd5b91908080601f016020809104026020016040519081016040528093929190818152602001838380828437600081840152601f19601f8201169050808301925050505050505091929192908035906020019092919050505062000284565b005b620001d360048036036020811015620001bc57600080fd5b810190808035906020019092919050505062000492565b60405180806020018373ffffffffffffffffffffffffffffffffffffffff1673ffffffffffffffffffffffffffffffffffffffff168152602001828103825284818151815260200191508051906020019080838360005b83811015620002475780820151818401526020810190506200022a565b50505050905090810190601f168015620002755780820380516001836020036101000a031916815260200191505b50935050505060405180910390f35b6000808154809291906001019190505550600083833384604051620002a99062000572565b8080602001806020018573ffffffffffffffffffffffffffffffffffffffff1673ffffffffffffffffffffffffffffffffffffffff168152602001848152602001838103835287818151815260200191508051906020019080838360005b838110156200032457808201518184015260208101905062000307565b50505050905090810190601f168015620003525780820380516001836020036101000a031916815260200191505b50838103825286818151815260200191508051906020019080838360005b838110156200038d57808201518184015260208101905062000370565b50505050905090810190601f168015620003bb5780820380516001836020036101000a031916815260200191505b509650505050505050604051809103906000f080158015620003e1573d6000803e3d6000fd5b50905060405180604001604052808581526020018273ffffffffffffffffffffffffffffffffffffffff16815250600160008054815260200190815260200160002060008201518160000190805190602001906200044192919062000580565b5060208201518160010160006101000a81548173ffffffffffffffffffffffffffffffffffffffff021916908373ffffffffffffffffffffffffffffffffffffffff16021790555090505050505050565b6001602052806000526040600020600091509050806000018054600181600116156101000203166002900480601f016020809104026020016040519081016040528092919081815260200182805460018160011615610100020316600290048015620005425780601f10620005165761010080835404028352916020019162000542565b820191906000526020600020905b8154815290600101906020018083116200052457829003601f168201915b5050505050908060010160009054906101000a900473ffffffffffffffffffffffffffffffffffffffff16905082565b6134a3806200063083390190565b828054600181600116156101000203166002900490600052602060002090601f016020900481019282601f10620005c357805160ff1916838001178555620005f4565b82800160010185558215620005f4579182015b82811115620005f3578251825591602001919060010190620005d6565b5b50905062000603919062000607565b5090565b6200062c91905b80821115620006285760008160009055506001016200060e565b5090565b9056fe60806040523480156200001157600080fd5b50604051620034a3380380620034a3833981810160405260808110156200003757600080fd5b81019080805160405193929190846401000000008211156200005857600080fd5b838201915060208201858111156200006f57600080fd5b82518660018202830111640100000000821117156200008d57600080fd5b8083526020830192505050908051906020019080838360005b83811015620000c3578082015181840152602081019050620000a6565b50505050905090810190601f168015620000f15780820380516001836020036101000a031916815260200191505b50604052602001805160405193929190846401000000008211156200011557600080fd5b838201915060208201858111156200012c57600080fd5b82518660018202830111640100000000821117156200014a57600080fd5b8083526020830192505050908051906020019080838360005b838110156200018057808201518184015260208101905062000163565b50505050905090810190601f168015620001ae5780820380516001836020036101000a031916815260200191505b5060405260200180519060200190929190805190602001909291905050508360405160200180807f4c414e443a20000000000000000000000000000000000000000000000000000081525060060182805190602001908083835b602083106200022d578051825260208201915060208101905060208303925062000208565b6001836020036101000a0380198251168184511680821785525050505050509050019150506040516020818303038152906040528360405160200180807f4c4e443a0000000000000000000000000000000000000000000000000000000081525060040182805190602001908083835b60208310620002c257805182526020820191506020810190506020830392506200029d565b6001836020036101000a0380198251168184511680821785525050505050509050019150506040516020818303038152906040526200030e6301ffc9a760e01b6200041960201b60201c565b8160069080519060200190620003269291906200097f565b5080600790805190602001906200033f9291906200097f565b50620003586380ac58cd60e01b6200041960201b60201c565b62000370635b5e139f60e01b6200041960201b60201c565b6200038863780e9d6360e01b6200041960201b60201c565b505083600a9080519060200190620003a29291906200097f565b5082600b9080519060200190620003bb9291906200097f565b5081600c60006101000a81548173ffffffffffffffffffffffffffffffffffffffff021916908373ffffffffffffffffffffffffffffffffffffffff1602179055506200040f82826200052260201b60201c565b5050505062000a2e565b63ffffffff60e01b817bffffffffffffffffffffffffffffffffffffffffffffffffffffffff19161415620004b6576040517f08c379a000000000000000000000000000000000000000000000000000000000815260040180806020018281038252601c8152602001807f4552433136353a20696e76616c696420696e746572666163652069640000000081525060200191505060405180910390fd5b6001600080837bffffffffffffffffffffffffffffffffffffffffffffffffffffffff19167bffffffffffffffffffffffffffffffffffffffffffffffffffffffff1916815260200190815260200160002060006101000a81548160ff02191690831515021790555050565b600073ffffffffffffffffffffffffffffffffffffffff168273ffffffffffffffffffffffffffffffffffffffff161415620005c6576040517f08c379a00000000000000000000000000000000000000000000000000000000081526004018080602001828103825260208152602001807f4552433732313a206d696e7420746f20746865207a65726f206164647265737381525060200191505060405180910390fd5b620005d7816200073660201b60201c565b156200064b576040517f08c379a000000000000000000000000000000000000000000000000000000000815260040180806020018281038252601c8152602001807f4552433732313a20746f6b656e20616c7265616479206d696e7465640000000081525060200191505060405180910390fd5b6200065f600083836200075a60201b60201c565b620006b781600160008573ffffffffffffffffffffffffffffffffffffffff1673ffffffffffffffffffffffffffffffffffffffff1681526020019081526020016000206200075f60201b62001e111790919060201c565b50620006d5818360026200078160201b62001e2b179092919060201c565b50808273ffffffffffffffffffffffffffffffffffffffff16600073ffffffffffffffffffffffffffffffffffffffff167fddf252ad1be2c89b69c2b068fc378daa952ba7f163c4a11628f55a4df523b3ef60405160405180910390a45050565b600062000753826002620007be60201b62001dc71790919060201c565b9050919050565b505050565b600062000779836000018360001b620007e060201b60201c565b905092915050565b6000620007b5846000018460001b8473ffffffffffffffffffffffffffffffffffffffff1660001b6200085a60201b60201c565b90509392505050565b6000620007d8836000018360001b6200093960201b60201c565b905092915050565b6000620007f483836200095c60201b60201c565b6200084f57826000018290806001815401808255809150506001900390600052602060002001600090919091909150558260000180549050836001016000848152602001908152602001600020819055506001905062000854565b600090505b92915050565b6000808460010160008581526020019081526020016000205490506000811415620009035784600001604051806040016040528086815260200185815250908060018154018082558091505060019003906000526020600020906002020160009091909190915060008201518160000155602082015181600101555050846000018054905085600101600086815260200190815260200160002081905550600191505062000932565b828560000160018303815481106200091757fe5b90600052602060002090600202016001018190555060009150505b9392505050565b600080836001016000848152602001908152602001600020541415905092915050565b600080836001016000848152602001908152602001600020541415905092915050565b828054600181600116156101000203166002900490600052602060002090601f016020900481019282601f10620009c257805160ff1916838001178555620009f3565b82800160010185558215620009f3579182015b82811115620009f2578251825591602001919060010190620009d5565b5b50905062000a02919062000a06565b5090565b62000a2b91905b8082111562000a2757600081600090555060010162000a0d565b5090565b90565b612a658062000a3e6000396000f3fe608060405234801561001057600080fd5b506004361061012c5760003560e01c80634f6ccce7116100ad578063a22cb46511610071578063a22cb4651461070c578063b88d4fde1461075c578063c87b56dd14610861578063e985e9c514610908578063f7b5c5b6146109845761012c565b80634f6ccce7146104fe5780636352211e146105405780636c0360eb146105ae57806370a082311461063157806395d89b41146106895761012c565b806323b872dd116100f457806323b872dd146102f35780632b8fdd89146103615780632f745c59146103ab5780633bbdbee01461040d57806342842e0e146104905761012c565b806301ffc9a71461013157806306fdde0314610196578063081812fc14610219578063095ea7b31461028757806318160ddd146102d5575b600080fd5b61017c6004803603602081101561014757600080fd5b8101908080357bffffffffffffffffffffffffffffffffffffffffffffffffffffffff19169060200190929190505050610a07565b604051808215151515815260200191505060405180910390f35b61019e610a6e565b6040518080602001828103825283818151815260200191508051906020019080838360005b838110156101de5780820151818401526020810190506101c3565b50505050905090810190601f16801561020b5780820380516001836020036101000a031916815260200191505b509250505060405180910390f35b6102456004803603602081101561022f57600080fd5b8101908080359060200190929190505050610b10565b604051808273ffffffffffffffffffffffffffffffffffffffff1673ffffffffffffffffffffffffffffffffffffffff16815260200191505060405180910390f35b6102d36004803603604081101561029d57600080fd5b81019080803573ffffffffffffffffffffffffffffffffffffffff16906020019092919080359060200190929190505050610bab565b005b6102dd610cef565b6040518082815260200191505060405180910390f35b61035f6004803603606081101561030957600080fd5b81019080803573ffffffffffffffffffffffffffffffffffffffff169060200190929190803573ffffffffffffffffffffffffffffffffffffffff16906020019092919080359060200190929190505050610d00565b005b610369610d76565b604051808273ffffffffffffffffffffffffffffffffffffffff1673ffffffffffffffffffffffffffffffffffffffff16815260200191505060405180910390f35b6103f7600480360360408110156103c157600080fd5b81019080803573ffffffffffffffffffffffffffffffffffffffff16906020019092919080359060200190929190505050610da0565b6040518082815260200191505060405180910390f35b610415610dfb565b6040518080602001828103825283818151815260200191508051906020019080838360005b8381101561045557808201518184015260208101905061043a565b50505050905090810190601f1680156104825780820380516001836020036101000a031916815260200191505b509250505060405180910390f35b6104fc600480360360608110156104a657600080fd5b81019080803573ffffffffffffffffffffffffffffffffffffffff169060200190929190803573ffffffffffffffffffffffffffffffffffffffff16906020019092919080359060200190929190505050610e9d565b005b61052a6004803603602081101561051457600080fd5b8101908080359060200190929190505050610ebd565b6040518082815260200191505060405180910390f35b61056c6004803603602081101561055657600080fd5b8101908080359060200190929190505050610ee0565b604051808273ffffffffffffffffffffffffffffffffffffffff1673ffffffffffffffffffffffffffffffffffffffff16815260200191505060405180910390f35b6105b6610f17565b6040518080602001828103825283818151815260200191508051906020019080838360005b838110156105f65780820151818401526020810190506105db565b50505050905090810190601f1680156106235780820380516001836020036101000a031916815260200191505b509250505060405180910390f35b6106736004803603602081101561064757600080fd5b81019080803573ffffffffffffffffffffffffffffffffffffffff169060200190929190505050610fb9565b6040518082815260200191505060405180910390f35b61069161108e565b6040518080602001828103825283818151815260200191508051906020019080838360005b838110156106d15780820151818401526020810190506106b6565b50505050905090810190601f1680156106fe5780820380516001836020036101000a031916815260200191505b509250505060405180910390f35b61075a6004803603604081101561072257600080fd5b81019080803573ffffffffffffffffffffffffffffffffffffffff169060200190929190803515159060200190929190505050611130565b005b61085f6004803603608081101561077257600080fd5b81019080803573ffffffffffffffffffffffffffffffffffffffff169060200190929190803573ffffffffffffffffffffffffffffffffffffffff16906020019092919080359060200190929190803590602001906401000000008111156107d957600080fd5b8201836020820111156107eb57600080fd5b8035906020019184600183028401116401000000008311171561080d57600080fd5b91908080601f016020809104026020016040519081016040528093929190818152602001838380828437600081840152601f19601f8201169050808301925050505050505091929192905050506112e8565b005b61088d6004803603602081101561087757600080fd5b8101908080359060200190929190505050611360565b6040518080602001828103825283818151815260200191508051906020019080838360005b838110156108cd5780820151818401526020810190506108b2565b50505050905090810190601f1680156108fa5780820380516001836020036101000a031916815260200191505b509250505060405180910390f35b61096a6004803603604081101561091e57600080fd5b81019080803573ffffffffffffffffffffffffffffffffffffffff169060200190929190803573ffffffffffffffffffffffffffffffffffffffff169060200190929190505050611631565b604051808215151515815260200191505060405180910390f35b61098c6116c5565b6040518080602001828103825283818151815260200191508051906020019080838360005b838110156109cc5780820151818401526020810190506109b1565b50505050905090810190601f1680156109f95780820380516001836020036101000a031916815260200191505b509250505060405180910390f35b6000806000837bffffffffffffffffffffffffffffffffffffffffffffffffffffffff19167bffffffffffffffffffffffffffffffffffffffffffffffffffffffff1916815260200190815260200160002060009054906101000a900460ff169050919050565b606060068054600181600116156101000203166002900480601f016020809104026020016040519081016040528092919081815260200182805460018160011615610100020316600290048015610b065780601f10610adb57610100808354040283529160200191610b06565b820191906000526020600020905b815481529060010190602001808311610ae957829003601f168201915b5050505050905090565b6000610b1b82611767565b610b70576040517f08c379a000000000000000000000000000000000000000000000000000000000815260040180806020018281038252602c81526020018061295a602c913960400191505060405180910390fd5b6004600083815260200190815260200160002060009054906101000a900473ffffffffffffffffffffffffffffffffffffffff169050919050565b6000610bb682610ee0565b90508073ffffffffffffffffffffffffffffffffffffffff168373ffffffffffffffffffffffffffffffffffffffff161415610c3d576040517f08c379a00000000000000000000000000000000000000000000000000000000081526004018080602001828103825260218152602001806129de6021913960400191505060405180910390fd5b8073ffffffffffffffffffffffffffffffffffffffff16610c5c611784565b73ffffffffffffffffffffffffffffffffffffffff161480610c8b5750610c8a81610c85611784565b611631565b5b610ce0576040517f08c379a00000000000000000000000000000000000000000000000000000000081526004018080602001828103825260388152602001806128ad6038913960400191505060405180910390fd5b610cea838361178c565b505050565b6000610cfb6002611845565b905090565b610d11610d0b611784565b8261185a565b610d66576040517f08c379a00000000000000000000000000000000000000000000000000000000081526004018080602001828103825260318152602001806129ff6031913960400191505060405180910390fd5b610d7183838361194e565b505050565b6000600c60009054906101000a900473ffffffffffffffffffffffffffffffffffffffff16905090565b6000610df382600160008673ffffffffffffffffffffffffffffffffffffffff1673ffffffffffffffffffffffffffffffffffffffff168152602001908152602001600020611b9190919063ffffffff16565b905092915050565b6060600a8054600181600116156101000203166002900480601f016020809104026020016040519081016040528092919081815260200182805460018160011615610100020316600290048015610e935780601f10610e6857610100808354040283529160200191610e93565b820191906000526020600020905b815481529060010190602001808311610e7657829003601f168201915b5050505050905090565b610eb8838383604051806020016040528060008152506112e8565b505050565b600080610ed4836002611bab90919063ffffffff16565b50905080915050919050565b6000610f108260405180606001604052806029815260200161290f602991396002611bda9092919063ffffffff16565b9050919050565b606060098054600181600116156101000203166002900480601f016020809104026020016040519081016040528092919081815260200182805460018160011615610100020316600290048015610faf5780601f10610f8457610100808354040283529160200191610faf565b820191906000526020600020905b815481529060010190602001808311610f9257829003601f168201915b5050505050905090565b60008073ffffffffffffffffffffffffffffffffffffffff168273ffffffffffffffffffffffffffffffffffffffff161415611040576040517f08c379a000000000000000000000000000000000000000000000000000000000815260040180806020018281038252602a8152602001806128e5602a913960400191505060405180910390fd5b611087600160008473ffffffffffffffffffffffffffffffffffffffff1673ffffffffffffffffffffffffffffffffffffffff168152602001908152602001600020611bf9565b9050919050565b606060078054600181600116156101000203166002900480601f0160208091040260200160405190810160405280929190818152602001828054600181600116156101000203166002900480156111265780601f106110fb57610100808354040283529160200191611126565b820191906000526020600020905b81548152906001019060200180831161110957829003601f168201915b5050505050905090565b611138611784565b73ffffffffffffffffffffffffffffffffffffffff168273ffffffffffffffffffffffffffffffffffffffff1614156111d9576040517f08c379a00000000000000000000000000000000000000000000000000000000081526004018080602001828103825260198152602001807f4552433732313a20617070726f766520746f2063616c6c65720000000000000081525060200191505060405180910390fd5b80600560006111e6611784565b73ffffffffffffffffffffffffffffffffffffffff1673ffffffffffffffffffffffffffffffffffffffff16815260200190815260200160002060008473ffffffffffffffffffffffffffffffffffffffff1673ffffffffffffffffffffffffffffffffffffffff16815260200190815260200160002060006101000a81548160ff0219169083151502179055508173ffffffffffffffffffffffffffffffffffffffff16611293611784565b73ffffffffffffffffffffffffffffffffffffffff167f17307eab39ab6107e8899845ad3d59bd9653f200f220920489ca2b5937696c3183604051808215151515815260200191505060405180910390a35050565b6112f96112f3611784565b8361185a565b61134e576040517f08c379a00000000000000000000000000000000000000000000000000000000081526004018080602001828103825260318152602001806129ff6031913960400191505060405180910390fd5b61135a84848484611c0e565b50505050565b606061136b82611767565b6113c0576040517f08c379a000000000000000000000000000000000000000000000000000000000815260040180806020018281038252602f8152602001806129af602f913960400191505060405180910390fd5b6060600860008481526020019081526020016000208054600181600116156101000203166002900480601f0160208091040260200160405190810160405280929190818152602001828054600181600116156101000203166002900480156114695780601f1061143e57610100808354040283529160200191611469565b820191906000526020600020905b81548152906001019060200180831161144c57829003601f168201915b50505050509050606061147a610f17565b905060008151141561149057819250505061162c565b6000825111156115615780826040516020018083805190602001908083835b602083106114d257805182526020820191506020810190506020830392506114af565b6001836020036101000a03801982511681845116808217855250505050505090500182805190602001908083835b602083106115235780518252602082019150602081019050602083039250611500565b6001836020036101000a038019825116818451168082178552505050505050905001925050506040516020818303038152906040529250505061162c565b8061156b85611c80565b6040516020018083805190602001908083835b602083106115a1578051825260208201915060208101905060208303925061157e565b6001836020036101000a03801982511681845116808217855250505050505090500182805190602001908083835b602083106115f257805182526020820191506020810190506020830392506115cf565b6001836020036101000a03801982511681845116808217855250505050505090500192505050604051602081830303815290604052925050505b919050565b6000600560008473ffffffffffffffffffffffffffffffffffffffff1673ffffffffffffffffffffffffffffffffffffffff16815260200190815260200160002060008373ffffffffffffffffffffffffffffffffffffffff1673ffffffffffffffffffffffffffffffffffffffff16815260200190815260200160002060009054906101000a900460ff16905092915050565b6060600b8054600181600116156101000203166002900480601f01602080910402602001604051908101604052809291908181526020018280546001816001161561010002031660029004801561175d5780601f106117325761010080835404028352916020019161175d565b820191906000526020600020905b81548152906001019060200180831161174057829003601f168201915b5050505050905090565b600061177d826002611dc790919063ffffffff16565b9050919050565b600033905090565b816004600083815260200190815260200160002060006101000a81548173ffffffffffffffffffffffffffffffffffffffff021916908373ffffffffffffffffffffffffffffffffffffffff160217905550808273ffffffffffffffffffffffffffffffffffffffff166117ff83610ee0565b73ffffffffffffffffffffffffffffffffffffffff167f8c5be1e5ebec7d5bd14f71427d1e84f3dd0314c0f7b2291e5b200ac8c7c3b92560405160405180910390a45050565b600061185382600001611de1565b9050919050565b600061186582611767565b6118ba576040517f08c379a000000000000000000000000000000000000000000000000000000000815260040180806020018281038252602c815260200180612881602c913960400191505060405180910390fd5b60006118c583610ee0565b90508073ffffffffffffffffffffffffffffffffffffffff168473ffffffffffffffffffffffffffffffffffffffff16148061193457508373ffffffffffffffffffffffffffffffffffffffff1661191c84610b10565b73ffffffffffffffffffffffffffffffffffffffff16145b8061194557506119448185611631565b5b91505092915050565b8273ffffffffffffffffffffffffffffffffffffffff1661196e82610ee0565b73ffffffffffffffffffffffffffffffffffffffff16146119da576040517f08c379a00000000000000000000000000000000000000000000000000000000081526004018080602001828103825260298152602001806129866029913960400191505060405180910390fd5b600073ffffffffffffffffffffffffffffffffffffffff168273ffffffffffffffffffffffffffffffffffffffff161415611a60576040517f08c379a00000000000000000000000000000000000000000000000000000000081526004018080602001828103825260248152602001806128376024913960400191505060405180910390fd5b611a6b838383611df2565b611a7660008261178c565b611ac781600160008673ffffffffffffffffffffffffffffffffffffffff1673ffffffffffffffffffffffffffffffffffffffff168152602001908152602001600020611df790919063ffffffff16565b50611b1981600160008573ffffffffffffffffffffffffffffffffffffffff1673ffffffffffffffffffffffffffffffffffffffff168152602001908152602001600020611e1190919063ffffffff16565b50611b3081836002611e2b9092919063ffffffff16565b50808273ffffffffffffffffffffffffffffffffffffffff168473ffffffffffffffffffffffffffffffffffffffff167fddf252ad1be2c89b69c2b068fc378daa952ba7f163c4a11628f55a4df523b3ef60405160405180910390a4505050565b6000611ba08360000183611e60565b60001c905092915050565b600080600080611bbe8660000186611ee3565b915091508160001c8160001c8090509350935050509250929050565b6000611bed846000018460001b84611f7c565b60001c90509392505050565b6000611c0782600001612072565b9050919050565b611c1984848461194e565b611c2584848484612083565b611c7a576040517f08c379a00000000000000000000000000000000000000000000000000000000081526004018080602001828103825260328152602001806128056032913960400191505060405180910390fd5b50505050565b60606000821415611cc8576040518060400160405280600181526020017f30000000000000000000000000000000000000000000000000000000000000008152509050611dc2565b600082905060005b60008214611cf2578080600101915050600a8281611cea57fe5b049150611cd0565b60608167ffffffffffffffff81118015611d0b57600080fd5b506040519080825280601f01601f191660200182016040528015611d3e5781602001600182028036833780820191505090505b50905060006001830390508593505b60008414611dba57600a8481611d5f57fe5b0660300160f81b82828060019003935081518110611d7957fe5b60200101907effffffffffffffffffffffffffffffffffffffffffffffffffffffffffffff1916908160001a905350600a8481611db257fe5b049350611d4d565b819450505050505b919050565b6000611dd9836000018360001b6122c8565b905092915050565b600081600001805490509050919050565b505050565b6000611e09836000018360001b6122eb565b905092915050565b6000611e23836000018360001b6123d3565b905092915050565b6000611e57846000018460001b8473ffffffffffffffffffffffffffffffffffffffff1660001b612443565b90509392505050565b600081836000018054905011611ec1576040517f08c379a00000000000000000000000000000000000000000000000000000000081526004018080602001828103825260228152602001806127e36022913960400191505060405180910390fd5b826000018281548110611ed057fe5b9060005260206000200154905092915050565b60008082846000018054905011611f45576040517f08c379a00000000000000000000000000000000000000000000000000000000081526004018080602001828103825260228152602001806129386022913960400191505060405180910390fd5b6000846000018481548110611f5657fe5b906000526020600020906002020190508060000154816001015492509250509250929050565b60008084600101600085815260200190815260200160002054905060008114158390612043576040517f08c379a00000000000000000000000000000000000000000000000000000000081526004018080602001828103825283818151815260200191508051906020019080838360005b83811015612008578082015181840152602081019050611fed565b50505050905090810190601f1680156120355780820380516001836020036101000a031916815260200191505b509250505060405180910390fd5b5084600001600182038154811061205657fe5b9060005260206000209060020201600101549150509392505050565b600081600001805490509050919050565b60006120a48473ffffffffffffffffffffffffffffffffffffffff1661251f565b6120b157600190506122c0565b606061224763150b7a0260e01b6120c6611784565b888787604051602401808573ffffffffffffffffffffffffffffffffffffffff1673ffffffffffffffffffffffffffffffffffffffff1681526020018473ffffffffffffffffffffffffffffffffffffffff1673ffffffffffffffffffffffffffffffffffffffff16815260200183815260200180602001828103825283818151815260200191508051906020019080838360005b8381101561217657808201518184015260208101905061215b565b50505050905090810190601f1680156121a35780820380516001836020036101000a031916815260200191505b5095505050505050604051602081830303815290604052907bffffffffffffffffffffffffffffffffffffffffffffffffffffffff19166020820180517bffffffffffffffffffffffffffffffffffffffffffffffffffffffff8381831617835250505050604051806060016040528060328152602001612805603291398773ffffffffffffffffffffffffffffffffffffffff166125329092919063ffffffff16565b9050600081806020019051602081101561226057600080fd5b8101908080519060200190929190505050905063150b7a0260e01b7bffffffffffffffffffffffffffffffffffffffffffffffffffffffff1916817bffffffffffffffffffffffffffffffffffffffffffffffffffffffff191614925050505b949350505050565b600080836001016000848152602001908152602001600020541415905092915050565b600080836001016000848152602001908152602001600020549050600081146123c7576000600182039050600060018660000180549050039050600086600001828154811061233657fe5b906000526020600020015490508087600001848154811061235357fe5b906000526020600020018190555060018301876001016000838152602001908152602001600020819055508660000180548061238b57fe5b600190038181906000526020600020016000905590558660010160008781526020019081526020016000206000905560019450505050506123cd565b60009150505b92915050565b60006123df838361254a565b61243857826000018290806001815401808255809150506001900390600052602060002001600090919091909150558260000180549050836001016000848152602001908152602001600020819055506001905061243d565b600090505b92915050565b60008084600101600085815260200190815260200160002054905060008114156124ea57846000016040518060400160405280868152602001858152509080600181540180825580915050600190039060005260206000209060020201600090919091909150600082015181600001556020820151816001015550508460000180549050856001016000868152602001908152602001600020819055506001915050612518565b828560000160018303815481106124fd57fe5b90600052602060002090600202016001018190555060009150505b9392505050565b600080823b905060008111915050919050565b6060612541848460008561256d565b90509392505050565b600080836001016000848152602001908152602001600020541415905092915050565b6060824710156125c8576040517f08c379a000000000000000000000000000000000000000000000000000000000815260040180806020018281038252602681526020018061285b6026913960400191505060405180910390fd5b6125d18561251f565b612643576040517f08c379a000000000000000000000000000000000000000000000000000000000815260040180806020018281038252601d8152602001807f416464726573733a2063616c6c20746f206e6f6e2d636f6e747261637400000081525060200191505060405180910390fd5b600060608673ffffffffffffffffffffffffffffffffffffffff1685876040518082805190602001908083835b602083106126935780518252602082019150602081019050602083039250612670565b6001836020036101000a03801982511681845116808217855250505050505090500191505060006040518083038185875af1925050503d80600081146126f5576040519150601f19603f3d011682016040523d82523d6000602084013e6126fa565b606091505b509150915061270a828286612716565b92505050949350505050565b60608315612726578290506127db565b6000835111156127395782518084602001fd5b816040517f08c379a00000000000000000000000000000000000000000000000000000000081526004018080602001828103825283818151815260200191508051906020019080838360005b838110156127a0578082015181840152602081019050612785565b50505050905090810190601f1680156127cd5780820380516001836020036101000a031916815260200191505b509250505060405180910390fd5b939250505056fe456e756d657261626c655365743a20696e646578206f7574206f6620626f756e64734552433732313a207472616e7366657220746f206e6f6e20455243373231526563656976657220696d706c656d656e7465724552433732313a207472616e7366657220746f20746865207a65726f2061646472657373416464726573733a20696e73756666696369656e742062616c616e636520666f722063616c6c4552433732313a206f70657261746f7220717565727920666f72206e6f6e6578697374656e7420746f6b656e4552433732313a20617070726f76652063616c6c6572206973206e6f74206f776e6572206e6f7220617070726f76656420666f7220616c6c4552433732313a2062616c616e636520717565727920666f7220746865207a65726f20616464726573734552433732313a206f776e657220717565727920666f72206e6f6e6578697374656e7420746f6b656e456e756d657261626c654d61703a20696e646578206f7574206f6620626f756e64734552433732313a20617070726f76656420717565727920666f72206e6f6e6578697374656e7420746f6b656e4552433732313a207472616e73666572206f6620746f6b656e2074686174206973206e6f74206f776e4552433732314d657461646174613a2055524920717565727920666f72206e6f6e6578697374656e7420746f6b656e4552433732313a20617070726f76616c20746f2063757272656e74206f776e65724552433732313a207472616e736665722063616c6c6572206973206e6f74206f776e6572206e6f7220617070726f766564a2646970667358221220c257e9e643ebce02d4f8f40c4633287d1d93764686797a5a9d518b3f7e1c586264736f6c63430006060033a26469706673582212203c4175fc67cb4396aa9bedefc84c81165f27b9db3af22026e5cc135c792f8b1864736f6c63430006060033",
  "immutableReferences": {},
  "source": "// SPDX-License-Identifier: MIT\n\npragma solidity >=0.5.0 <0.8.0;\n\nimport \"./token/Nft.sol\";\n\ncontract CreateLandNft {\n    struct tokens {\n        string name;\n        address tokenAddress;\n    }\n\n    uint256 counter;\n    mapping(uint256 => tokens) public landsAddress;\n\n    function _mint(\n        string memory _name,\n        string memory _symbol,\n        uint256 _id\n    ) public {\n        counter++;\n        NftToken _nftToken = new NftToken(_name, _symbol, msg.sender, _id);\n        landsAddress[counter] = tokens(_name, address(_nftToken));\n    }\n}\n",
  "sourcePath": "/home/yash/hackathons/RefungibleEstate/src/contracts/CreateLandNft.sol",
  "compiler": {
    "name": "solc",
    "version": "0.6.6+commit.6c089d02.Emscripten.clang"
  },
  "schemaVersion": "3.3.3",
  "updatedAt": "2021-02-07T15:18:01.361Z",
  "devdoc": {
    "methods": {}
  },
  "userdoc": {
    "methods": {}
  }
}