{
  "contractName": "DelegationController",
  "abi": [
    {
      "inputs": [
        {
          "internalType": "address",
          "name": "",
          "type": "address"
        },
        {
          "internalType": "address",
          "name": "",
          "type": "address"
        }
      ],
      "name": "details",
      "outputs": [
        {
          "internalType": "uint256",
          "name": "amountLocked",
          "type": "uint256"
        },
        {
          "internalType": "uint256",
          "name": "interestRate",
          "type": "uint256"
        },
        {
          "internalType": "uint256",
          "name": "amountBorrowed",
          "type": "uint256"
        }
      ],
      "stateMutability": "view",
      "type": "function"
    },
    {
      "inputs": [
        {
          "internalType": "address",
          "name": "",
          "type": "address"
        }
      ],
      "name": "tokenTorToken",
      "outputs": [
        {
          "internalType": "address",
          "name": "",
          "type": "address"
        }
      ],
      "stateMutability": "view",
      "type": "function"
    },
    {
      "inputs": [
        {
          "internalType": "address",
          "name": "token",
          "type": "address"
        },
        {
          "internalType": "uint256",
          "name": "amount",
          "type": "uint256"
        },
        {
          "internalType": "uint256",
          "name": "interestRate",
          "type": "uint256"
        }
      ],
      "name": "lockCollateral",
      "outputs": [],
      "stateMutability": "nonpayable",
      "type": "function"
    },
    {
      "inputs": [
        {
          "internalType": "address",
          "name": "borrower",
          "type": "address"
        },
        {
          "internalType": "address",
          "name": "token",
          "type": "address"
        }
      ],
      "name": "approve",
      "outputs": [],
      "stateMutability": "nonpayable",
      "type": "function"
    },
    {
      "inputs": [
        {
          "internalType": "address",
          "name": "delegator",
          "type": "address"
        },
        {
          "internalType": "address",
          "name": "token",
          "type": "address"
        },
        {
          "internalType": "uint256",
          "name": "amount",
          "type": "uint256"
        }
      ],
      "name": "borrow",
      "outputs": [],
      "stateMutability": "nonpayable",
      "type": "function"
    },
    {
      "inputs": [
        {
          "internalType": "address",
          "name": "delegator",
          "type": "address"
        },
        {
          "internalType": "address",
          "name": "token",
          "type": "address"
        },
        {
          "internalType": "uint256",
          "name": "amount",
          "type": "uint256"
        }
      ],
      "name": "payBackDebt",
      "outputs": [],
      "stateMutability": "nonpayable",
      "type": "function"
    }
  ],
  "bytecode": "0x608060405234801561001057600080fd5b50613543806100206000396000f3fe60806040523480156200001157600080fd5b50600436106200006a5760003560e01c80631691f706146200006f5780632017d0a214620000ca5780635224372c14620001515780637e5465ba14620001c2578063e71e0e1a1462000229578063f772a10d146200029a575b600080fd5b620000c8600480360360608110156200008757600080fd5b81019080803573ffffffffffffffffffffffffffffffffffffffff169060200190929190803590602001909291908035906020019092919050505062000323565b005b6200010f60048036036020811015620000e257600080fd5b81019080803573ffffffffffffffffffffffffffffffffffffffff16906020019092919050505062000df8565b604051808273ffffffffffffffffffffffffffffffffffffffff1673ffffffffffffffffffffffffffffffffffffffff16815260200191505060405180910390f35b620001c0600480360360608110156200016957600080fd5b81019080803573ffffffffffffffffffffffffffffffffffffffff169060200190929190803573ffffffffffffffffffffffffffffffffffffffff1690602001909291908035906020019092919050505062000e2b565b005b6200022760048036036040811015620001da57600080fd5b81019080803573ffffffffffffffffffffffffffffffffffffffff169060200190929190803573ffffffffffffffffffffffffffffffffffffffff1690602001909291905050506200128c565b005b62000298600480360360608110156200024157600080fd5b81019080803573ffffffffffffffffffffffffffffffffffffffff169060200190929190803573ffffffffffffffffffffffffffffffffffffffff16906020019092919080359060200190929190505050620014fe565b005b620002ff60048036036040811015620002b257600080fd5b81019080803573ffffffffffffffffffffffffffffffffffffffff169060200190929190803573ffffffffffffffffffffffffffffffffffffffff16906020019092919050505062001834565b60405180848152602001838152602001828152602001935050505060405180910390f35b600073ffffffffffffffffffffffffffffffffffffffff168373ffffffffffffffffffffffffffffffffffffffff161415620003ab576040517f08c379a0000000000000000000000000000000000000000000000000000000008152600401808060200182810382526025815260200180620034576025913960400191505060405180910390fd5b6000821162000406576040517f08c379a0000000000000000000000000000000000000000000000000000000008152600401808060200182810382526024815260200180620034c06024913960400191505060405180910390fd5b6000600160008573ffffffffffffffffffffffffffffffffffffffff1673ffffffffffffffffffffffffffffffffffffffff16815260200190815260200160002060009054906101000a900473ffffffffffffffffffffffffffffffffffffffff16905060008060003373ffffffffffffffffffffffffffffffffffffffff1673ffffffffffffffffffffffffffffffffffffffff16815260200190815260200160002060008673ffffffffffffffffffffffffffffffffffffffff1673ffffffffffffffffffffffffffffffffffffffff1681526020019081526020016000209050600073ffffffffffffffffffffffffffffffffffffffff168273ffffffffffffffffffffffffffffffffffffffff1614620006bf578473ffffffffffffffffffffffffffffffffffffffff166323b872dd3330876040518463ffffffff1660e01b8152600401808473ffffffffffffffffffffffffffffffffffffffff1673ffffffffffffffffffffffffffffffffffffffff1681526020018373ffffffffffffffffffffffffffffffffffffffff1673ffffffffffffffffffffffffffffffffffffffff1681526020018281526020019350505050602060405180830381600087803b158015620005da57600080fd5b505af1158015620005ef573d6000803e3d6000fd5b505050506040513d60208110156200060657600080fd5b8101908080519060200190929190505050508173ffffffffffffffffffffffffffffffffffffffff166340c10f1933866040518363ffffffff1660e01b8152600401808373ffffffffffffffffffffffffffffffffffffffff1673ffffffffffffffffffffffffffffffffffffffff16815260200182815260200192505050600060405180830381600087803b158015620006a057600080fd5b505af1158015620006b5573d6000803e3d6000fd5b5050505062000da3565b8473ffffffffffffffffffffffffffffffffffffffff166323b872dd3330876040518463ffffffff1660e01b8152600401808473ffffffffffffffffffffffffffffffffffffffff1673ffffffffffffffffffffffffffffffffffffffff1681526020018373ffffffffffffffffffffffffffffffffffffffff1673ffffffffffffffffffffffffffffffffffffffff1681526020018281526020019350505050602060405180830381600087803b1580156200077b57600080fd5b505af115801562000790573d6000803e3d6000fd5b505050506040513d6020811015620007a757600080fd5b81019080805190602001909291905050505060008573ffffffffffffffffffffffffffffffffffffffff166306fdde036040518163ffffffff1660e01b815260040160006040518083038186803b1580156200080257600080fd5b505afa15801562000817573d6000803e3d6000fd5b505050506040513d6000823e3d601f19601f8201168201806040525060208110156200084257600080fd5b81019080805160405193929190846401000000008211156200086357600080fd5b838201915060208201858111156200087a57600080fd5b82518660018202830111640100000000821117156200089857600080fd5b8083526020830192505050908051906020019080838360005b83811015620008ce578082015181840152602081019050620008b1565b50505050905090810190601f168015620008fc5780820380516001836020036101000a031916815260200191505b5060405250505060405160200180807f726566756e67696e672000000000000000000000000000000000000000000000815250600a0182805190602001908083835b602083106200096357805182526020820191506020810190506020830392506200093e565b6001836020036101000a0380198251168184511680821785525050505050509050019150506040516020818303038152906040528673ffffffffffffffffffffffffffffffffffffffff166395d89b416040518163ffffffff1660e01b815260040160006040518083038186803b158015620009de57600080fd5b505afa158015620009f3573d6000803e3d6000fd5b505050506040513d6000823e3d601f19601f82011682018060405250602081101562000a1e57600080fd5b810190808051604051939291908464010000000082111562000a3f57600080fd5b8382019150602082018581111562000a5657600080fd5b825186600182028301116401000000008211171562000a7457600080fd5b8083526020830192505050908051906020019080838360005b8381101562000aaa57808201518184015260208101905062000a8d565b50505050905090810190601f16801562000ad85780820380516001836020036101000a031916815260200191505b5060405250505060405160200180807f720000000000000000000000000000000000000000000000000000000000000081525060010182805190602001908083835b6020831062000b3f578051825260208201915060208101905060208303925062000b1a565b6001836020036101000a03801982511681845116808217855250505050505090500191505060405160208183030381529060405260405162000b81906200186b565b808060200180602001838103835285818151815260200191508051906020019080838360005b8381101562000bc457808201518184015260208101905062000ba7565b50505050905090810190601f16801562000bf25780820380516001836020036101000a031916815260200191505b50838103825284818151815260200191508051906020019080838360005b8381101562000c2d57808201518184015260208101905062000c10565b50505050905090810190601f16801562000c5b5780820380516001836020036101000a031916815260200191505b50945050505050604051809103906000f08015801562000c7f573d6000803e3d6000fd5b5090508073ffffffffffffffffffffffffffffffffffffffff166340c10f1933876040518363ffffffff1660e01b8152600401808373ffffffffffffffffffffffffffffffffffffffff1673ffffffffffffffffffffffffffffffffffffffff16815260200182815260200192505050600060405180830381600087803b15801562000d0a57600080fd5b505af115801562000d1f573d6000803e3d6000fd5b5050505080600160008873ffffffffffffffffffffffffffffffffffffffff1673ffffffffffffffffffffffffffffffffffffffff16815260200190815260200160002060006101000a81548173ffffffffffffffffffffffffffffffffffffffff021916908373ffffffffffffffffffffffffffffffffffffffff160217905550505b6000816000015414801562000dbc575060008160020154145b1562000dcc578281600101819055505b838160000160008282540192505081905550600081600201600082825401925050819055505050505050565b60016020528060005260406000206000915054906101000a900473ffffffffffffffffffffffffffffffffffffffff1681565b6000811162000e86576040517f08c379a0000000000000000000000000000000000000000000000000000000008152600401808060200182810382526024815260200180620034c06024913960400191505060405180910390fd5b6000600160008473ffffffffffffffffffffffffffffffffffffffff1673ffffffffffffffffffffffffffffffffffffffff16815260200190815260200160002060009054906101000a900473ffffffffffffffffffffffffffffffffffffffff169050600073ffffffffffffffffffffffffffffffffffffffff168173ffffffffffffffffffffffffffffffffffffffff16141562000f72576040517f08c379a00000000000000000000000000000000000000000000000000000000081526004018080602001828103825260238152602001806200347c6023913960400191505060405180910390fd5b60008060008673ffffffffffffffffffffffffffffffffffffffff1673ffffffffffffffffffffffffffffffffffffffff16815260200190815260200160002060008573ffffffffffffffffffffffffffffffffffffffff1673ffffffffffffffffffffffffffffffffffffffff16815260200190815260200160002090508060030160003373ffffffffffffffffffffffffffffffffffffffff1673ffffffffffffffffffffffffffffffffffffffff16815260200190815260200160002060009054906101000a900460ff1662001097576040517f08c379a000000000000000000000000000000000000000000000000000000000815260040180806020018281038252602a815260200180620034e4602a913960400191505060405180910390fd5b6000816002015482600001540311620010fc576040517f08c379a00000000000000000000000000000000000000000000000000000000081526004018080602001828103825260218152602001806200349f6021913960400191505060405180910390fd5b828160020154826000015403101562001161576040517f08c379a00000000000000000000000000000000000000000000000000000000081526004018080602001828103825260218152602001806200349f6021913960400191505060405180910390fd5b828160020154018160020181905550828160040160003373ffffffffffffffffffffffffffffffffffffffff1673ffffffffffffffffffffffffffffffffffffffff168152602001908152602001600020600082825401925050819055508373ffffffffffffffffffffffffffffffffffffffff1663a9059cbb33856040518363ffffffff1660e01b8152600401808373ffffffffffffffffffffffffffffffffffffffff1673ffffffffffffffffffffffffffffffffffffffff16815260200182815260200192505050602060405180830381600087803b1580156200124757600080fd5b505af11580156200125c573d6000803e3d6000fd5b505050506040513d60208110156200127357600080fd5b8101908080519060200190929190505050505050505050565b6000600160008373ffffffffffffffffffffffffffffffffffffffff1673ffffffffffffffffffffffffffffffffffffffff16815260200190815260200160002060009054906101000a900473ffffffffffffffffffffffffffffffffffffffff169050600073ffffffffffffffffffffffffffffffffffffffff168173ffffffffffffffffffffffffffffffffffffffff16141562001378576040517f08c379a00000000000000000000000000000000000000000000000000000000081526004018080602001828103825260238152602001806200347c6023913960400191505060405180910390fd5b60008060003373ffffffffffffffffffffffffffffffffffffffff1673ffffffffffffffffffffffffffffffffffffffff16815260200190815260200160002060008473ffffffffffffffffffffffffffffffffffffffff1673ffffffffffffffffffffffffffffffffffffffff16815260200190815260200160002090508060030160003373ffffffffffffffffffffffffffffffffffffffff1673ffffffffffffffffffffffffffffffffffffffff16815260200190815260200160002060009054906101000a900460ff16156200149e576040517f08c379a000000000000000000000000000000000000000000000000000000000815260040180806020018281038252602a815260200180620034e4602a913960400191505060405180910390fd5b60018160030160008673ffffffffffffffffffffffffffffffffffffffff1673ffffffffffffffffffffffffffffffffffffffff16815260200190815260200160002060006101000a81548160ff02191690831515021790555050505050565b6000811162001559576040517f08c379a0000000000000000000000000000000000000000000000000000000008152600401808060200182810382526024815260200180620034c06024913960400191505060405180910390fd5b6000600160008473ffffffffffffffffffffffffffffffffffffffff1673ffffffffffffffffffffffffffffffffffffffff16815260200190815260200160002060009054906101000a900473ffffffffffffffffffffffffffffffffffffffff169050600073ffffffffffffffffffffffffffffffffffffffff168173ffffffffffffffffffffffffffffffffffffffff16141562001645576040517f08c379a00000000000000000000000000000000000000000000000000000000081526004018080602001828103825260238152602001806200347c6023913960400191505060405180910390fd5b60008060008673ffffffffffffffffffffffffffffffffffffffff1673ffffffffffffffffffffffffffffffffffffffff16815260200190815260200160002060008573ffffffffffffffffffffffffffffffffffffffff1673ffffffffffffffffffffffffffffffffffffffff1681526020019081526020016000209050828160020154038160020181905550828160040160003373ffffffffffffffffffffffffffffffffffffffff1673ffffffffffffffffffffffffffffffffffffffff168152602001908152602001600020600082825403925050819055508373ffffffffffffffffffffffffffffffffffffffff166323b872dd3330606485600101548802816200175157fe5b046040518463ffffffff1660e01b8152600401808473ffffffffffffffffffffffffffffffffffffffff1673ffffffffffffffffffffffffffffffffffffffff1681526020018373ffffffffffffffffffffffffffffffffffffffff1673ffffffffffffffffffffffffffffffffffffffff1681526020018281526020019350505050602060405180830381600087803b158015620017ef57600080fd5b505af115801562001804573d6000803e3d6000fd5b505050506040513d60208110156200181b57600080fd5b8101908080519060200190929190505050505050505050565b6000602052816000526040600020602052806000526040600020600091509150508060000154908060010154908060020154905083565b611bdd806200187a8339019056fe60806040523480156200001157600080fd5b5060405162001bdd38038062001bdd833981810160405260408110156200003757600080fd5b81019080805160405193929190846401000000008211156200005857600080fd5b838201915060208201858111156200006f57600080fd5b82518660018202830111640100000000821117156200008d57600080fd5b8083526020830192505050908051906020019080838360005b83811015620000c3578082015181840152602081019050620000a6565b50505050905090810190601f168015620000f15780820380516001836020036101000a031916815260200191505b50604052602001805160405193929190846401000000008211156200011557600080fd5b838201915060208201858111156200012c57600080fd5b82518660018202830111640100000000821117156200014a57600080fd5b8083526020830192505050908051906020019080838360005b838110156200018057808201518184015260208101905062000163565b50505050905090810190601f168015620001ae5780820380516001836020036101000a031916815260200191505b5060405250505081818160039080519060200190620001cf929190620002c8565b508060049080519060200190620001e8929190620002c8565b506012600560006101000a81548160ff021916908360ff1602179055505050600062000219620002c060201b60201c565b905080600560016101000a81548173ffffffffffffffffffffffffffffffffffffffff021916908373ffffffffffffffffffffffffffffffffffffffff1602179055508073ffffffffffffffffffffffffffffffffffffffff16600073ffffffffffffffffffffffffffffffffffffffff167f8be0079c531659141344cd1fd0a4f28419497f9722a3daafe3b4186f6b6457e060405160405180910390a350505062000377565b600033905090565b828054600181600116156101000203166002900490600052602060002090601f016020900481019282601f106200030b57805160ff19168380011785556200033c565b828001600101855582156200033c579182015b828111156200033b5782518255916020019190600101906200031e565b5b5090506200034b91906200034f565b5090565b6200037491905b808211156200037057600081600090555060010162000356565b5090565b90565b61185680620003876000396000f3fe608060405234801561001057600080fd5b50600436106100f55760003560e01c806370a0823111610097578063a457c2d711610066578063a457c2d71461048e578063a9059cbb146104f4578063dd62ed3e1461055a578063f2fde38b146105d2576100f5565b806370a082311461035f578063715018a6146103b75780638da5cb5b146103c157806395d89b411461040b576100f5565b806323b872dd116100d357806323b872dd14610201578063313ce5671461028757806339509351146102ab57806340c10f1914610311576100f5565b806306fdde03146100fa578063095ea7b31461017d57806318160ddd146101e3575b600080fd5b610102610616565b6040518080602001828103825283818151815260200191508051906020019080838360005b83811015610142578082015181840152602081019050610127565b50505050905090810190601f16801561016f5780820380516001836020036101000a031916815260200191505b509250505060405180910390f35b6101c96004803603604081101561019357600080fd5b81019080803573ffffffffffffffffffffffffffffffffffffffff169060200190929190803590602001909291905050506106b8565b604051808215151515815260200191505060405180910390f35b6101eb6106d6565b6040518082815260200191505060405180910390f35b61026d6004803603606081101561021757600080fd5b81019080803573ffffffffffffffffffffffffffffffffffffffff169060200190929190803573ffffffffffffffffffffffffffffffffffffffff169060200190929190803590602001909291905050506106e0565b604051808215151515815260200191505060405180910390f35b61028f6107b9565b604051808260ff1660ff16815260200191505060405180910390f35b6102f7600480360360408110156102c157600080fd5b81019080803573ffffffffffffffffffffffffffffffffffffffff169060200190929190803590602001909291905050506107d0565b604051808215151515815260200191505060405180910390f35b61035d6004803603604081101561032757600080fd5b81019080803573ffffffffffffffffffffffffffffffffffffffff16906020019092919080359060200190929190505050610883565b005b6103a16004803603602081101561037557600080fd5b81019080803573ffffffffffffffffffffffffffffffffffffffff169060200190929190505050610940565b6040518082815260200191505060405180910390f35b6103bf610988565b005b6103c9610af8565b604051808273ffffffffffffffffffffffffffffffffffffffff1673ffffffffffffffffffffffffffffffffffffffff16815260200191505060405180910390f35b610413610b22565b6040518080602001828103825283818151815260200191508051906020019080838360005b83811015610453578082015181840152602081019050610438565b50505050905090810190601f1680156104805780820380516001836020036101000a031916815260200191505b509250505060405180910390f35b6104da600480360360408110156104a457600080fd5b81019080803573ffffffffffffffffffffffffffffffffffffffff16906020019092919080359060200190929190505050610bc4565b604051808215151515815260200191505060405180910390f35b6105406004803603604081101561050a57600080fd5b81019080803573ffffffffffffffffffffffffffffffffffffffff16906020019092919080359060200190929190505050610c91565b604051808215151515815260200191505060405180910390f35b6105bc6004803603604081101561057057600080fd5b81019080803573ffffffffffffffffffffffffffffffffffffffff169060200190929190803573ffffffffffffffffffffffffffffffffffffffff169060200190929190505050610caf565b6040518082815260200191505060405180910390f35b610614600480360360208110156105e857600080fd5b81019080803573ffffffffffffffffffffffffffffffffffffffff169060200190929190505050610d36565b005b606060038054600181600116156101000203166002900480601f0160208091040260200160405190810160405280929190818152602001828054600181600116156101000203166002900480156106ae5780601f10610683576101008083540402835291602001916106ae565b820191906000526020600020905b81548152906001019060200180831161069157829003601f168201915b5050505050905090565b60006106cc6106c5610f2b565b8484610f33565b6001905092915050565b6000600254905090565b60006106ed84848461112a565b6107ae846106f9610f2b565b6107a98560405180606001604052806028815260200161178b60289139600160008b73ffffffffffffffffffffffffffffffffffffffff1673ffffffffffffffffffffffffffffffffffffffff168152602001908152602001600020600061075f610f2b565b73ffffffffffffffffffffffffffffffffffffffff1673ffffffffffffffffffffffffffffffffffffffff168152602001908152602001600020546113eb9092919063ffffffff16565b610f33565b600190509392505050565b6000600560009054906101000a900460ff16905090565b60006108796107dd610f2b565b8461087485600160006107ee610f2b565b73ffffffffffffffffffffffffffffffffffffffff1673ffffffffffffffffffffffffffffffffffffffff16815260200190815260200160002060008973ffffffffffffffffffffffffffffffffffffffff1673ffffffffffffffffffffffffffffffffffffffff168152602001908152602001600020546114a590919063ffffffff16565b610f33565b6001905092915050565b61088b610f2b565b73ffffffffffffffffffffffffffffffffffffffff166108a9610af8565b73ffffffffffffffffffffffffffffffffffffffff1614610932576040517f08c379a00000000000000000000000000000000000000000000000000000000081526004018080602001828103825260208152602001807f4f776e61626c653a2063616c6c6572206973206e6f7420746865206f776e657281525060200191505060405180910390fd5b61093c828261152d565b5050565b60008060008373ffffffffffffffffffffffffffffffffffffffff1673ffffffffffffffffffffffffffffffffffffffff168152602001908152602001600020549050919050565b610990610f2b565b73ffffffffffffffffffffffffffffffffffffffff166109ae610af8565b73ffffffffffffffffffffffffffffffffffffffff1614610a37576040517f08c379a00000000000000000000000000000000000000000000000000000000081526004018080602001828103825260208152602001807f4f776e61626c653a2063616c6c6572206973206e6f7420746865206f776e657281525060200191505060405180910390fd5b600073ffffffffffffffffffffffffffffffffffffffff16600560019054906101000a900473ffffffffffffffffffffffffffffffffffffffff1673ffffffffffffffffffffffffffffffffffffffff167f8be0079c531659141344cd1fd0a4f28419497f9722a3daafe3b4186f6b6457e060405160405180910390a36000600560016101000a81548173ffffffffffffffffffffffffffffffffffffffff021916908373ffffffffffffffffffffffffffffffffffffffff160217905550565b6000600560019054906101000a900473ffffffffffffffffffffffffffffffffffffffff16905090565b606060048054600181600116156101000203166002900480601f016020809104026020016040519081016040528092919081815260200182805460018160011615610100020316600290048015610bba5780601f10610b8f57610100808354040283529160200191610bba565b820191906000526020600020905b815481529060010190602001808311610b9d57829003601f168201915b5050505050905090565b6000610c87610bd1610f2b565b84610c82856040518060600160405280602581526020016117fc6025913960016000610bfb610f2b565b73ffffffffffffffffffffffffffffffffffffffff1673ffffffffffffffffffffffffffffffffffffffff16815260200190815260200160002060008a73ffffffffffffffffffffffffffffffffffffffff1673ffffffffffffffffffffffffffffffffffffffff168152602001908152602001600020546113eb9092919063ffffffff16565b610f33565b6001905092915050565b6000610ca5610c9e610f2b565b848461112a565b6001905092915050565b6000600160008473ffffffffffffffffffffffffffffffffffffffff1673ffffffffffffffffffffffffffffffffffffffff16815260200190815260200160002060008373ffffffffffffffffffffffffffffffffffffffff1673ffffffffffffffffffffffffffffffffffffffff16815260200190815260200160002054905092915050565b610d3e610f2b565b73ffffffffffffffffffffffffffffffffffffffff16610d5c610af8565b73ffffffffffffffffffffffffffffffffffffffff1614610de5576040517f08c379a00000000000000000000000000000000000000000000000000000000081526004018080602001828103825260208152602001807f4f776e61626c653a2063616c6c6572206973206e6f7420746865206f776e657281525060200191505060405180910390fd5b600073ffffffffffffffffffffffffffffffffffffffff168173ffffffffffffffffffffffffffffffffffffffff161415610e6b576040517f08c379a000000000000000000000000000000000000000000000000000000000815260040180806020018281038252602681526020018061171d6026913960400191505060405180910390fd5b8073ffffffffffffffffffffffffffffffffffffffff16600560019054906101000a900473ffffffffffffffffffffffffffffffffffffffff1673ffffffffffffffffffffffffffffffffffffffff167f8be0079c531659141344cd1fd0a4f28419497f9722a3daafe3b4186f6b6457e060405160405180910390a380600560016101000a81548173ffffffffffffffffffffffffffffffffffffffff021916908373ffffffffffffffffffffffffffffffffffffffff16021790555050565b600033905090565b600073ffffffffffffffffffffffffffffffffffffffff168373ffffffffffffffffffffffffffffffffffffffff161415610fb9576040517f08c379a00000000000000000000000000000000000000000000000000000000081526004018080602001828103825260248152602001806117d86024913960400191505060405180910390fd5b600073ffffffffffffffffffffffffffffffffffffffff168273ffffffffffffffffffffffffffffffffffffffff16141561103f576040517f08c379a00000000000000000000000000000000000000000000000000000000081526004018080602001828103825260228152602001806117436022913960400191505060405180910390fd5b80600160008573ffffffffffffffffffffffffffffffffffffffff1673ffffffffffffffffffffffffffffffffffffffff16815260200190815260200160002060008473ffffffffffffffffffffffffffffffffffffffff1673ffffffffffffffffffffffffffffffffffffffff168152602001908152602001600020819055508173ffffffffffffffffffffffffffffffffffffffff168373ffffffffffffffffffffffffffffffffffffffff167f8c5be1e5ebec7d5bd14f71427d1e84f3dd0314c0f7b2291e5b200ac8c7c3b925836040518082815260200191505060405180910390a3505050565b600073ffffffffffffffffffffffffffffffffffffffff168373ffffffffffffffffffffffffffffffffffffffff1614156111b0576040517f08c379a00000000000000000000000000000000000000000000000000000000081526004018080602001828103825260258152602001806117b36025913960400191505060405180910390fd5b600073ffffffffffffffffffffffffffffffffffffffff168273ffffffffffffffffffffffffffffffffffffffff161415611236576040517f08c379a00000000000000000000000000000000000000000000000000000000081526004018080602001828103825260238152602001806116fa6023913960400191505060405180910390fd5b6112418383836116f4565b6112ac81604051806060016040528060268152602001611765602691396000808773ffffffffffffffffffffffffffffffffffffffff1673ffffffffffffffffffffffffffffffffffffffff168152602001908152602001600020546113eb9092919063ffffffff16565b6000808573ffffffffffffffffffffffffffffffffffffffff1673ffffffffffffffffffffffffffffffffffffffff1681526020019081526020016000208190555061133f816000808573ffffffffffffffffffffffffffffffffffffffff1673ffffffffffffffffffffffffffffffffffffffff168152602001908152602001600020546114a590919063ffffffff16565b6000808473ffffffffffffffffffffffffffffffffffffffff1673ffffffffffffffffffffffffffffffffffffffff168152602001908152602001600020819055508173ffffffffffffffffffffffffffffffffffffffff168373ffffffffffffffffffffffffffffffffffffffff167fddf252ad1be2c89b69c2b068fc378daa952ba7f163c4a11628f55a4df523b3ef836040518082815260200191505060405180910390a3505050565b6000838311158290611498576040517f08c379a00000000000000000000000000000000000000000000000000000000081526004018080602001828103825283818151815260200191508051906020019080838360005b8381101561145d578082015181840152602081019050611442565b50505050905090810190601f16801561148a5780820380516001836020036101000a031916815260200191505b509250505060405180910390fd5b5082840390509392505050565b600080828401905083811015611523576040517f08c379a000000000000000000000000000000000000000000000000000000000815260040180806020018281038252601b8152602001807f536166654d6174683a206164646974696f6e206f766572666c6f77000000000081525060200191505060405180910390fd5b8091505092915050565b600073ffffffffffffffffffffffffffffffffffffffff168273ffffffffffffffffffffffffffffffffffffffff1614156115d0576040517f08c379a000000000000000000000000000000000000000000000000000000000815260040180806020018281038252601f8152602001807f45524332303a206d696e7420746f20746865207a65726f20616464726573730081525060200191505060405180910390fd5b6115dc600083836116f4565b6115f1816002546114a590919063ffffffff16565b600281905550611648816000808573ffffffffffffffffffffffffffffffffffffffff1673ffffffffffffffffffffffffffffffffffffffff168152602001908152602001600020546114a590919063ffffffff16565b6000808473ffffffffffffffffffffffffffffffffffffffff1673ffffffffffffffffffffffffffffffffffffffff168152602001908152602001600020819055508173ffffffffffffffffffffffffffffffffffffffff16600073ffffffffffffffffffffffffffffffffffffffff167fddf252ad1be2c89b69c2b068fc378daa952ba7f163c4a11628f55a4df523b3ef836040518082815260200191505060405180910390a35050565b50505056fe45524332303a207472616e7366657220746f20746865207a65726f20616464726573734f776e61626c653a206e6577206f776e657220697320746865207a65726f206164647265737345524332303a20617070726f766520746f20746865207a65726f206164647265737345524332303a207472616e7366657220616d6f756e7420657863656564732062616c616e636545524332303a207472616e7366657220616d6f756e74206578636565647320616c6c6f77616e636545524332303a207472616e736665722066726f6d20746865207a65726f206164647265737345524332303a20617070726f76652066726f6d20746865207a65726f206164647265737345524332303a2064656372656173656420616c6c6f77616e63652062656c6f77207a65726fa2646970667358221220905810457b024581ac8969031d79eb7687513a45c05a419d78b629860643820664736f6c6343000606003344656c65676174696f6e436f6e74726f6c6c65723a20696e76616c6964206164647265737344656c65676174696f6e436f6e74726f6c6c65723a20696e76616c696420746f6b656e44656c65676174696f6e436f6e74726f6c6c65723a206e6f7420616c6c6f77656444656c65676174696f6e436f6e74726f6c6c65723a20696e76616c696420616d6f756e7444656c65676174696f6e436f6e74726f6c6c65723a20796f7520617265206e6f7420617070726f766564a2646970667358221220bcb0e9a61f4f70c3052d702da3116e9546c2b8c131b7a59a65aabd2417ce7a6264736f6c63430006060033",
  "immutableReferences": {},
  "source": "// SPDX-License-Identifier: MIT\n\npragma solidity >=0.6.0;\n\nimport {OwnableERC20Token as ERC20} from \"./token/OwnableERC20TOken.sol\";\nimport {\n    OwnableERC20Token as OwnableERC20Token\n} from \"./token/OwnableERC20TOken.sol\";\n\ncontract DelegationController {\n    struct DelegationDetails {\n        uint256 amountLocked;\n        uint256 interestRate;\n        uint256 amountBorrowed;\n        mapping(address => bool) approved;\n        mapping(address => uint256) borrowers;\n    }\n\n    mapping(address => mapping(address => DelegationDetails)) public details;\n    mapping(address => address) public tokenTorToken;\n\n    function lockCollateral(\n        address token,\n        uint256 amount,\n        uint256 interestRate\n    ) public {\n        require(token != address(0), \"DelegationController: invalid address\");\n        require(amount > 0, \"DelegationController: invalid amount\");\n\n        address rToken = tokenTorToken[token];\n\n        DelegationDetails storage detail = details[msg.sender][address(token)];\n\n        if (rToken != address(0)) {\n            ERC20(token).transferFrom(msg.sender, address(this), amount);\n\n            OwnableERC20Token(rToken).mint(msg.sender, amount);\n        } else {\n            ERC20(token).transferFrom(msg.sender, address(this), amount);\n\n            OwnableERC20Token newRToken =\n                new OwnableERC20Token(\n                    string(abi.encodePacked(\"refunging \", ERC20(token).name())),\n                    string(abi.encodePacked(\"r\", ERC20(token).symbol()))\n                );\n\n            newRToken.mint(msg.sender, amount);\n            tokenTorToken[token] = address(newRToken);\n        }\n\n        if (detail.amountLocked == 0 && detail.amountBorrowed == 0)\n            detail.interestRate = interestRate;\n        detail.amountLocked += amount;\n        detail.amountBorrowed += 0;\n    }\n\n    function approve(address borrower, address token) public {\n        address rToken = tokenTorToken[token];\n        require(rToken != address(0), \"DelegationController: invalid token\");\n\n        DelegationDetails storage detail = details[msg.sender][token];\n\n        require(\n            !detail.approved[msg.sender],\n            \"DelegationController: you are not approved\"\n        );\n\n        detail.approved[borrower] = true;\n    }\n\n    function borrow(\n        address delegator,\n        address token,\n        uint256 amount\n    ) public {\n        require(amount > 0, \"DelegationController: invalid amount\");\n        address rToken = tokenTorToken[token];\n        require(rToken != address(0), \"DelegationController: invalid token\");\n\n        DelegationDetails storage detail = details[delegator][token];\n\n        require(\n            detail.approved[msg.sender],\n            \"DelegationController: you are not approved\"\n        );\n        require(\n            detail.amountLocked - detail.amountBorrowed > 0,\n            \"DelegationController: not allowed\"\n        );\n        require(\n            detail.amountLocked - detail.amountBorrowed >= amount,\n            \"DelegationController: not allowed\"\n        );\n\n        detail.amountBorrowed = detail.amountBorrowed + amount;\n        detail.borrowers[msg.sender] += amount;\n\n        ERC20(token).transfer(msg.sender, amount);\n    }\n\n    function payBackDebt(\n        address delegator,\n        address token,\n        uint256 amount\n    ) public {\n        require(amount > 0, \"DelegationController: invalid amount\");\n        address rToken = tokenTorToken[token];\n        require(rToken != address(0), \"DelegationController: invalid token\");\n\n        DelegationDetails storage detail = details[delegator][token];\n\n        detail.amountBorrowed = detail.amountBorrowed - amount;\n        detail.borrowers[msg.sender] -= amount;\n\n        ERC20(token).transferFrom(\n            msg.sender,\n            address(this),\n            ((amount * detail.interestRate) / 100)\n        );\n    }\n}\n",
  "sourcePath": "/home/yash/hackathons/RefungibleEstate/src/contracts/DelegationController.sol",
  "compiler": {
    "name": "solc",
    "version": "0.6.6+commit.6c089d02.Emscripten.clang"
  },
  "schemaVersion": "3.3.3",
  "updatedAt": "2021-02-07T15:18:01.367Z",
  "devdoc": {
    "methods": {}
  },
  "userdoc": {
    "methods": {}
  }
}