{
  "contractName": "EstateArea",
  "abi": [
    {
      "inputs": [],
      "stateMutability": "nonpayable",
      "type": "constructor"
    },
    {
      "anonymous": false,
      "inputs": [
        {
          "indexed": true,
          "internalType": "bytes32",
          "name": "id",
          "type": "bytes32"
        }
      ],
      "name": "ChainlinkCancelled",
      "type": "event"
    },
    {
      "anonymous": false,
      "inputs": [
        {
          "indexed": true,
          "internalType": "bytes32",
          "name": "id",
          "type": "bytes32"
        }
      ],
      "name": "ChainlinkFulfilled",
      "type": "event"
    },
    {
      "anonymous": false,
      "inputs": [
        {
          "indexed": true,
          "internalType": "bytes32",
          "name": "id",
          "type": "bytes32"
        }
      ],
      "name": "ChainlinkRequested",
      "type": "event"
    },
    {
      "inputs": [
        {
          "internalType": "bytes32",
          "name": "",
          "type": "bytes32"
        }
      ],
      "name": "currentRealEstateArea",
      "outputs": [
        {
          "internalType": "uint256",
          "name": "",
          "type": "uint256"
        }
      ],
      "stateMutability": "view",
      "type": "function"
    },
    {
      "inputs": [],
      "name": "latestRequestId",
      "outputs": [
        {
          "internalType": "bytes32",
          "name": "",
          "type": "bytes32"
        }
      ],
      "stateMutability": "view",
      "type": "function"
    },
    {
      "inputs": [],
      "name": "pricePerSqft",
      "outputs": [
        {
          "internalType": "uint256",
          "name": "",
          "type": "uint256"
        }
      ],
      "stateMutability": "view",
      "type": "function"
    },
    {
      "inputs": [
        {
          "internalType": "bytes32",
          "name": "",
          "type": "bytes32"
        }
      ],
      "name": "receiptArea",
      "outputs": [
        {
          "internalType": "bytes32",
          "name": "",
          "type": "bytes32"
        }
      ],
      "stateMutability": "view",
      "type": "function"
    },
    {
      "inputs": [],
      "name": "rent",
      "outputs": [
        {
          "internalType": "uint256",
          "name": "",
          "type": "uint256"
        }
      ],
      "stateMutability": "view",
      "type": "function"
    },
    {
      "inputs": [],
      "name": "sqftArea",
      "outputs": [
        {
          "internalType": "uint256",
          "name": "",
          "type": "uint256"
        }
      ],
      "stateMutability": "view",
      "type": "function"
    },
    {
      "inputs": [],
      "name": "tokenHash",
      "outputs": [
        {
          "internalType": "bytes32",
          "name": "",
          "type": "bytes32"
        }
      ],
      "stateMutability": "view",
      "type": "function"
    },
    {
      "inputs": [
        {
          "internalType": "string",
          "name": "_tokenId",
          "type": "string"
        }
      ],
      "name": "returnSqftArea",
      "outputs": [],
      "stateMutability": "nonpayable",
      "type": "function"
    },
    {
      "inputs": [
        {
          "internalType": "bytes32",
          "name": "_requestId",
          "type": "bytes32"
        },
        {
          "internalType": "uint256",
          "name": "_sqftArea",
          "type": "uint256"
        }
      ],
      "name": "myCallback",
      "outputs": [],
      "stateMutability": "nonpayable",
      "type": "function"
    },
    {
      "inputs": [
        {
          "internalType": "string",
          "name": "_tokenId",
          "type": "string"
        }
      ],
      "name": "getAreaTokenId",
      "outputs": [
        {
          "internalType": "uint256",
          "name": "",
          "type": "uint256"
        }
      ],
      "stateMutability": "view",
      "type": "function"
    }
  ],
  "bytecode": "0x6080604052600160045560006009556000600a556000600b5534801561002457600080fd5b506100336100c360201b60201c565b73aa1dc356dc4b18f30c347798fd5379f3d77abc5b600660006101000a81548173ffffffffffffffffffffffffffffffffffffffff021916908373ffffffffffffffffffffffffffffffffffffffff1602179055507f613865613139313362646263343835646163646661333233363437633830656460078190555067016345785d8a00006008819055506101ac565b61016673c89bd4e1632d3a43cb03aaad5262cbe4038bc57173ffffffffffffffffffffffffffffffffffffffff166338cc48316040518163ffffffff1660e01b815260040160206040518083038186803b15801561012057600080fd5b505afa158015610134573d6000803e3d6000fd5b505050506040513d602081101561014a57600080fd5b810190808051906020019092919050505061016860201b60201c565b565b80600260006101000a81548173ffffffffffffffffffffffffffffffffffffffff021916908373ffffffffffffffffffffffffffffffffffffffff16021790555050565b611139806101bb6000396000f3fe608060405234801561001057600080fd5b506004361061009e5760003560e01c80636a29ee93116100665780636a29ee931461017757806382996d9f146102325780639af5848a146102505780639b148eae14610292578063cca49473146103615761009e565b80631aa46f59146100a357806328441366146100c157806338ba91f014610103578063554100a51461013b5780635ab922b614610159575b600080fd5b6100ab61037f565b6040518082815260200191505060405180910390f35b6100ed600480360360208110156100d757600080fd5b8101908080359060200190929190505050610385565b6040518082815260200191505060405180910390f35b6101396004803603604081101561011957600080fd5b81019080803590602001909291908035906020019092919050505061039d565b005b610143610516565b6040518082815260200191505060405180910390f35b61016161051c565b6040518082815260200191505060405180910390f35b6102306004803603602081101561018d57600080fd5b81019080803590602001906401000000008111156101aa57600080fd5b8201836020820111156101bc57600080fd5b803590602001918460018302840111640100000000831117156101de57600080fd5b91908080601f016020809104026020016040519081016040528093929190818152602001838380828437600081840152601f19601f820116905080830192505050505050509192919290505050610522565b005b61023a61065b565b6040518082815260200191505060405180910390f35b61027c6004803603602081101561026657600080fd5b8101908080359060200190929190505050610661565b6040518082815260200191505060405180910390f35b61034b600480360360208110156102a857600080fd5b81019080803590602001906401000000008111156102c557600080fd5b8201836020820111156102d757600080fd5b803590602001918460018302840111640100000000831117156102f957600080fd5b91908080601f016020809104026020016040519081016040528093929190818152602001838380828437600081840152601f19601f820116905080830192505050505050509192919290505050610679565b6040518082815260200191505060405180910390f35b61036961069e565b6040518082815260200191505060405180910390f35b600c5481565b600e6020528060005260406000206000915090505481565b816005600082815260200190815260200160002060009054906101000a900473ffffffffffffffffffffffffffffffffffffffff1673ffffffffffffffffffffffffffffffffffffffff163373ffffffffffffffffffffffffffffffffffffffff1614610455576040517f08c379a00000000000000000000000000000000000000000000000000000000081526004018080602001828103825260288152602001806110dc6028913960400191505060405180910390fd5b6005600082815260200190815260200160002060006101000a81549073ffffffffffffffffffffffffffffffffffffffff0219169055807f7cc135e0cebb02c3480ae5d74d377283180a2601f8f644edf7987b009316c63a60405160405180910390a2600e600084815260200190815260200160002054600d81905550600e60008481526020019081526020016000206000905581600f6000600d5481526020019081526020016000208190555082600c8190555081600981905550505050565b600a5481565b60095481565b61052a611031565b61053e600754306338ba91f060e01b6106a4565b905061058a6040518060400160405280600781526020017f746f6b656e49640000000000000000000000000000000000000000000000000081525083836106d59092919063ffffffff16565b6106096040518060400160405280600881526020017f636f7079506174680000000000000000000000000000000000000000000000008152506040518060400160405280600881526020017f7371667441726561000000000000000000000000000000000000000000000000815250836106d59092919063ffffffff16565b61061282610708565b600e6000610645600660009054906101000a900473ffffffffffffffffffffffffffffffffffffffff1685600854610733565b8152602001908152602001600020819055505050565b600b5481565b600f6020528060005260406000206000915090505481565b6000600f600061068884610708565b8152602001908152602001600020549050919050565b600d5481565b6106ac611031565b6106b4611031565b6106cb858585846109eb909392919063ffffffff16565b9150509392505050565b6106ec828460800151610a9b90919063ffffffff16565b610703818460800151610a9b90919063ffffffff16565b505050565b60006060829050600081511415610725576000801b91505061072e565b60208301519150505b919050565b600030600454604051602001808373ffffffffffffffffffffffffffffffffffffffff1673ffffffffffffffffffffffffffffffffffffffff1660601b815260140182815260200192505050604051602081830303815290604052805190602001209050600454836060018181525050836005600083815260200190815260200160002060006101000a81548173ffffffffffffffffffffffffffffffffffffffff021916908373ffffffffffffffffffffffffffffffffffffffff160217905550807fb5e6e01e79f91267dc17b4e6314d5d4d03593d2ceee0fbb452b750bd70ea5af960405160405180910390a2600260009054906101000a900473ffffffffffffffffffffffffffffffffffffffff1673ffffffffffffffffffffffffffffffffffffffff16634000aea0858461086b87610ac0565b6040518463ffffffff1660e01b8152600401808473ffffffffffffffffffffffffffffffffffffffff1673ffffffffffffffffffffffffffffffffffffffff16815260200183815260200180602001828103825283818151815260200191508051906020019080838360005b838110156108f25780820151818401526020810190506108d7565b50505050905090810190601f16801561091f5780820380516001836020036101000a031916815260200191505b50945050505050602060405180830381600087803b15801561094057600080fd5b505af1158015610954573d6000803e3d6000fd5b505050506040513d602081101561096a57600080fd5b81019080805190602001909291905050506109d0576040517f08c379a00000000000000000000000000000000000000000000000000000000081526004018080602001828103825260238152602001806110b96023913960400191505060405180910390fd5b60016004600082825401925050819055508090509392505050565b6109f3611031565b610a038560800151610100610c8c565b508385600001818152505082856020019073ffffffffffffffffffffffffffffffffffffffff16908173ffffffffffffffffffffffffffffffffffffffff16815250508185604001907bffffffffffffffffffffffffffffffffffffffffffffffffffffffff191690817bffffffffffffffffffffffffffffffffffffffffffffffffffffffff191681525050849050949350505050565b610aa88260038351610ce0565b610abb8183610e2590919063ffffffff16565b505050565b6060634042994660e01b60008084600001518560200151866040015187606001516001896080015160000151604051602401808973ffffffffffffffffffffffffffffffffffffffff1673ffffffffffffffffffffffffffffffffffffffff1681526020018881526020018781526020018673ffffffffffffffffffffffffffffffffffffffff1673ffffffffffffffffffffffffffffffffffffffff168152602001857bffffffffffffffffffffffffffffffffffffffffffffffffffffffff19167bffffffffffffffffffffffffffffffffffffffffffffffffffffffff1916815260200184815260200183815260200180602001828103825283818151815260200191508051906020019080838360005b83811015610bef578082015181840152602081019050610bd4565b50505050905090810190601f168015610c1c5780820380516001836020036101000a031916815260200191505b509950505050505050505050604051602081830303815290604052907bffffffffffffffffffffffffffffffffffffffffffffffffffffffff19166020820180517bffffffffffffffffffffffffffffffffffffffffffffffffffffffff83818316178352505050509050919050565b610c9461109e565b600060208381610ca057fe5b0614610cb95760208281610cb057fe5b06602003820191505b81836020018181525050604051808452600081528281016020016040525082905092915050565b60178111610d0d57610d078160058460ff16901b60ff161784610e4790919063ffffffff16565b50610e20565b60ff8111610d4f57610d32601860058460ff16901b1784610e4790919063ffffffff16565b50610d4981600185610e679092919063ffffffff16565b50610e1f565b61ffff8111610d9257610d75601960058460ff16901b1784610e4790919063ffffffff16565b50610d8c81600285610e679092919063ffffffff16565b50610e1e565b63ffffffff8111610dd757610dba601a60058460ff16901b1784610e4790919063ffffffff16565b50610dd181600485610e679092919063ffffffff16565b50610e1d565b67ffffffffffffffff8111610e1c57610e03601b60058460ff16901b1784610e4790919063ffffffff16565b50610e1a81600885610e679092919063ffffffff16565b505b5b5b5b5b505050565b610e2d61109e565b610e3f83846000015151848551610e89565b905092915050565b610e4f61109e565b610e5f8384600001515184610f42565b905092915050565b610e6f61109e565b610e80848560000151518585610f90565b90509392505050565b610e9161109e565b8251821115610e9f57600080fd5b84602001518285011115610eca57610ec9856002610ec38860200151888701610ff1565b0261100d565b5b600080865180518760208301019350808887011115610ee95787860182525b60208701925050505b60208410610f155780518252602082019150602081019050602084039350610ef2565b60006001856020036101000a03905080198251168184511681811785525050879350505050949350505050565b610f4a61109e565b83602001518310610f6757610f6684600286602001510261100d565b5b8351805160208583010184815381861415610f83576001820183525b5050508390509392505050565b610f9861109e565b84602001518483011115610fb657610fb58560028685010261100d565b5b60006001836101000a0390508551838682010185831982511617815281518588011115610fe35784870182525b505085915050949350505050565b60008183111561100357829050611007565b8190505b92915050565b6060826000015190506110208383610c8c565b5061102b8382610e25565b50505050565b6040518060a0016040528060008019168152602001600073ffffffffffffffffffffffffffffffffffffffff16815260200160007bffffffffffffffffffffffffffffffffffffffffffffffffffffffff191681526020016000815260200161109861109e565b81525090565b60405180604001604052806060815260200160008152509056fe756e61626c6520746f207472616e73666572416e6443616c6c20746f206f7261636c65536f75726365206d75737420626520746865206f7261636c65206f66207468652072657175657374a2646970667358221220141da97c79ecc93734998cad59733c087822ff697b0d1fc26e0cec6a6445881064736f6c63430006060033",
  "immutableReferences": {},
  "source": "pragma solidity >=0.5.0 <0.8.0;\n\nimport \"@chainlink/contracts/src/v0.6/ChainlinkClient.sol\";\n\ncontract EstateArea is ChainlinkClient {\n\n    address private oracle;\n    bytes32 private jobId;\n    uint256 private fee;\n\n    uint public sqftArea = 0;\n    uint public pricePerSqft = 0;\n    uint public rent = 0;\n    bytes32 public latestRequestId;\n    bytes32 public tokenHash;\n\n    mapping(bytes32 => bytes32) public receiptArea;\n    mapping(bytes32 => uint) public currentRealEstateArea;\n\n    constructor() public {\n        setPublicChainlinkToken();\n        oracle = 0xAA1DC356dc4B18f30C347798FD5379F3D77ABC5b;\n        jobId = \"a8ea1913bdbc485dacdfa323647c80ed\";\n        fee = 0.1 * 10 ** 18; // 1 LINK\n    }\n    \n    function returnSqftArea(string memory _tokenId) public {\n        Chainlink.Request memory request = buildChainlinkRequest(jobId, address(this), this.myCallback.selector);\n        request.add(\"tokenId\", _tokenId);\n        request.add(\"copyPath\", \"sqftArea\");\n        receiptArea[sendChainlinkRequestTo(oracle, request, fee)] = stringToBytes32(_tokenId);\n    }\n\n    function myCallback(bytes32 _requestId, uint _sqftArea) public recordChainlinkFulfillment(_requestId){\n        tokenHash = receiptArea[_requestId];\n        delete receiptArea[_requestId];\n        currentRealEstateArea[tokenHash] = _sqftArea;\n        latestRequestId = _requestId;\n        sqftArea = _sqftArea;\n    }\n    \n    function getAreaTokenId(string memory _tokenId) public view returns (uint256) {\n        return currentRealEstateArea[stringToBytes32(_tokenId)];\n    }\n    \n    \n    function stringToBytes32(string memory source) internal pure returns (bytes32 result) {\n        bytes memory tempEmptyStringTest = bytes(source);\n        if (tempEmptyStringTest.length == 0) {\n            return 0x0;\n        }\n        assembly {\n            result := mload(add(source, 32))\n        }\n    }\n\n    function bytes32ToStr(bytes32 _bytes32) private pure returns (string memory) {\n        bytes memory bytesArray = new bytes(32);\n        for (uint256 i; i < 32; i++) {\n            bytesArray[i] = _bytes32[i];\n        }\n        return string(bytesArray);\n    }\n}",
  "sourcePath": "/Users/newsgate/Work/RefungibleEstate/src/contracts/EstareArea.sol",
  "compiler": {
    "name": "solc",
    "version": "0.6.6+commit.6c089d02.Emscripten.clang"
  },
  "schemaVersion": "3.3.3",
  "updatedAt": "2021-02-07T20:18:22.912Z",
  "networkType": "ethereum",
  "devdoc": {
    "methods": {}
  },
  "userdoc": {
    "methods": {}
  }
}