{
  "contractName": "EstateArea",
  "abi": [
    {
      "inputs": [],
      "stateMutability": "nonpayable",
      "type": "constructor"
    },
    {
      "anonymous": false,
      "inputs": [
        {
          "indexed": true,
          "internalType": "bytes32",
          "name": "id",
          "type": "bytes32"
        }
      ],
      "name": "ChainlinkCancelled",
      "type": "event"
    },
    {
      "anonymous": false,
      "inputs": [
        {
          "indexed": true,
          "internalType": "bytes32",
          "name": "id",
          "type": "bytes32"
        }
      ],
      "name": "ChainlinkFulfilled",
      "type": "event"
    },
    {
      "anonymous": false,
      "inputs": [
        {
          "indexed": true,
          "internalType": "bytes32",
          "name": "id",
          "type": "bytes32"
        }
      ],
      "name": "ChainlinkRequested",
      "type": "event"
    },
    {
      "inputs": [
        {
          "internalType": "bytes32",
          "name": "",
          "type": "bytes32"
        }
      ],
      "name": "currentRealEstateArea",
      "outputs": [
        {
          "internalType": "uint256",
          "name": "",
          "type": "uint256"
        }
      ],
      "stateMutability": "view",
      "type": "function",
      "constant": true
    },
    {
      "inputs": [],
      "name": "latestRequestId",
      "outputs": [
        {
          "internalType": "bytes32",
          "name": "",
          "type": "bytes32"
        }
      ],
      "stateMutability": "view",
      "type": "function",
      "constant": true
    },
    {
      "inputs": [
        {
          "internalType": "bytes32",
          "name": "",
          "type": "bytes32"
        }
      ],
      "name": "receiptArea",
      "outputs": [
        {
          "internalType": "bytes32",
          "name": "",
          "type": "bytes32"
        }
      ],
      "stateMutability": "view",
      "type": "function",
      "constant": true
    },
    {
      "inputs": [],
      "name": "sqftArea",
      "outputs": [
        {
          "internalType": "uint256",
          "name": "",
          "type": "uint256"
        }
      ],
      "stateMutability": "view",
      "type": "function",
      "constant": true
    },
    {
      "inputs": [],
      "name": "tokenHash",
      "outputs": [
        {
          "internalType": "bytes32",
          "name": "",
          "type": "bytes32"
        }
      ],
      "stateMutability": "view",
      "type": "function",
      "constant": true
    },
    {
      "inputs": [
        {
          "internalType": "string",
          "name": "_tokenId",
          "type": "string"
        }
      ],
      "name": "returnSqftArea",
      "outputs": [],
      "stateMutability": "nonpayable",
      "type": "function"
    },
    {
      "inputs": [
        {
          "internalType": "bytes32",
          "name": "_requestId",
          "type": "bytes32"
        },
        {
          "internalType": "uint256",
          "name": "_sqftArea",
          "type": "uint256"
        }
      ],
      "name": "myCallback",
      "outputs": [],
      "stateMutability": "nonpayable",
      "type": "function"
    },
    {
      "inputs": [
        {
          "internalType": "string",
          "name": "_tokenId",
          "type": "string"
        }
      ],
      "name": "getAreaTokenId",
      "outputs": [
        {
          "internalType": "uint256",
          "name": "",
          "type": "uint256"
        }
      ],
      "stateMutability": "view",
      "type": "function",
      "constant": true
    }
  ],
  "bytecode": "0x6080604052600160045534801561001557600080fd5b506100246100b460201b60201c565b73aa1dc356dc4b18f30c347798fd5379f3d77abc5b600660006101000a81548173ffffffffffffffffffffffffffffffffffffffff021916908373ffffffffffffffffffffffffffffffffffffffff1602179055507f613865613139313362646263343835646163646661333233363437633830656460078190555067016345785d8a000060088190555061019d565b61015773c89bd4e1632d3a43cb03aaad5262cbe4038bc57173ffffffffffffffffffffffffffffffffffffffff166338cc48316040518163ffffffff1660e01b815260040160206040518083038186803b15801561011157600080fd5b505afa158015610125573d6000803e3d6000fd5b505050506040513d602081101561013b57600080fd5b810190808051906020019092919050505061015960201b60201c565b565b80600260006101000a81548173ffffffffffffffffffffffffffffffffffffffff021916908373ffffffffffffffffffffffffffffffffffffffff16021790555050565b6110db806101ac6000396000f3fe608060405234801561001057600080fd5b50600436106100885760003560e01c80636a29ee931161005b5780636a29ee93146101435780639af5848a146101fe5780639b148eae14610240578063cca494731461030f57610088565b80631aa46f591461008d57806328441366146100ab57806338ba91f0146100ed5780635ab922b614610125575b600080fd5b61009561032d565b6040518082815260200191505060405180910390f35b6100d7600480360360208110156100c157600080fd5b8101908080359060200190929190505050610333565b6040518082815260200191505060405180910390f35b6101236004803603604081101561010357600080fd5b81019080803590602001909291908035906020019092919050505061034b565b005b61012d6104c4565b6040518082815260200191505060405180910390f35b6101fc6004803603602081101561015957600080fd5b810190808035906020019064010000000081111561017657600080fd5b82018360208201111561018857600080fd5b803590602001918460018302840111640100000000831117156101aa57600080fd5b91908080601f016020809104026020016040519081016040528093929190818152602001838380828437600081840152601f19601f8201169050808301925050505050505091929192905050506104ca565b005b61022a6004803603602081101561021457600080fd5b8101908080359060200190929190505050610603565b6040518082815260200191505060405180910390f35b6102f96004803603602081101561025657600080fd5b810190808035906020019064010000000081111561027357600080fd5b82018360208201111561028557600080fd5b803590602001918460018302840111640100000000831117156102a757600080fd5b91908080601f016020809104026020016040519081016040528093929190818152602001838380828437600081840152601f19601f82011690508083019250505050505050919291929050505061061b565b6040518082815260200191505060405180910390f35b610317610640565b6040518082815260200191505060405180910390f35b600a5481565b600c6020528060005260406000206000915090505481565b816005600082815260200190815260200160002060009054906101000a900473ffffffffffffffffffffffffffffffffffffffff1673ffffffffffffffffffffffffffffffffffffffff163373ffffffffffffffffffffffffffffffffffffffff1614610403576040517f08c379a000000000000000000000000000000000000000000000000000000000815260040180806020018281038252602881526020018061107e6028913960400191505060405180910390fd5b6005600082815260200190815260200160002060006101000a81549073ffffffffffffffffffffffffffffffffffffffff0219169055807f7cc135e0cebb02c3480ae5d74d377283180a2601f8f644edf7987b009316c63a60405160405180910390a2600c600084815260200190815260200160002054600b81905550600c60008481526020019081526020016000206000905581600d6000600b5481526020019081526020016000208190555082600a8190555081600981905550505050565b60095481565b6104d2610fd3565b6104e6600754306338ba91f060e01b610646565b90506105326040518060400160405280600781526020017f746f6b656e49640000000000000000000000000000000000000000000000000081525083836106779092919063ffffffff16565b6105b16040518060400160405280600881526020017f636f7079506174680000000000000000000000000000000000000000000000008152506040518060400160405280600881526020017f7371667441726561000000000000000000000000000000000000000000000000815250836106779092919063ffffffff16565b6105ba826106aa565b600c60006105ed600660009054906101000a900473ffffffffffffffffffffffffffffffffffffffff16856008546106d5565b8152602001908152602001600020819055505050565b600d6020528060005260406000206000915090505481565b6000600d600061062a846106aa565b8152602001908152602001600020549050919050565b600b5481565b61064e610fd3565b610656610fd3565b61066d8585858461098d909392919063ffffffff16565b9150509392505050565b61068e828460800151610a3d90919063ffffffff16565b6106a5818460800151610a3d90919063ffffffff16565b505050565b600060608290506000815114156106c7576000801b9150506106d0565b60208301519150505b919050565b600030600454604051602001808373ffffffffffffffffffffffffffffffffffffffff1673ffffffffffffffffffffffffffffffffffffffff1660601b815260140182815260200192505050604051602081830303815290604052805190602001209050600454836060018181525050836005600083815260200190815260200160002060006101000a81548173ffffffffffffffffffffffffffffffffffffffff021916908373ffffffffffffffffffffffffffffffffffffffff160217905550807fb5e6e01e79f91267dc17b4e6314d5d4d03593d2ceee0fbb452b750bd70ea5af960405160405180910390a2600260009054906101000a900473ffffffffffffffffffffffffffffffffffffffff1673ffffffffffffffffffffffffffffffffffffffff16634000aea0858461080d87610a62565b6040518463ffffffff1660e01b8152600401808473ffffffffffffffffffffffffffffffffffffffff1673ffffffffffffffffffffffffffffffffffffffff16815260200183815260200180602001828103825283818151815260200191508051906020019080838360005b83811015610894578082015181840152602081019050610879565b50505050905090810190601f1680156108c15780820380516001836020036101000a031916815260200191505b50945050505050602060405180830381600087803b1580156108e257600080fd5b505af11580156108f6573d6000803e3d6000fd5b505050506040513d602081101561090c57600080fd5b8101908080519060200190929190505050610972576040517f08c379a000000000000000000000000000000000000000000000000000000000815260040180806020018281038252602381526020018061105b6023913960400191505060405180910390fd5b60016004600082825401925050819055508090509392505050565b610995610fd3565b6109a58560800151610100610c2e565b508385600001818152505082856020019073ffffffffffffffffffffffffffffffffffffffff16908173ffffffffffffffffffffffffffffffffffffffff16815250508185604001907bffffffffffffffffffffffffffffffffffffffffffffffffffffffff191690817bffffffffffffffffffffffffffffffffffffffffffffffffffffffff191681525050849050949350505050565b610a4a8260038351610c82565b610a5d8183610dc790919063ffffffff16565b505050565b6060634042994660e01b60008084600001518560200151866040015187606001516001896080015160000151604051602401808973ffffffffffffffffffffffffffffffffffffffff1673ffffffffffffffffffffffffffffffffffffffff1681526020018881526020018781526020018673ffffffffffffffffffffffffffffffffffffffff1673ffffffffffffffffffffffffffffffffffffffff168152602001857bffffffffffffffffffffffffffffffffffffffffffffffffffffffff19167bffffffffffffffffffffffffffffffffffffffffffffffffffffffff1916815260200184815260200183815260200180602001828103825283818151815260200191508051906020019080838360005b83811015610b91578082015181840152602081019050610b76565b50505050905090810190601f168015610bbe5780820380516001836020036101000a031916815260200191505b509950505050505050505050604051602081830303815290604052907bffffffffffffffffffffffffffffffffffffffffffffffffffffffff19166020820180517bffffffffffffffffffffffffffffffffffffffffffffffffffffffff83818316178352505050509050919050565b610c36611040565b600060208381610c4257fe5b0614610c5b5760208281610c5257fe5b06602003820191505b81836020018181525050604051808452600081528281016020016040525082905092915050565b60178111610caf57610ca98160058460ff16901b60ff161784610de990919063ffffffff16565b50610dc2565b60ff8111610cf157610cd4601860058460ff16901b1784610de990919063ffffffff16565b50610ceb81600185610e099092919063ffffffff16565b50610dc1565b61ffff8111610d3457610d17601960058460ff16901b1784610de990919063ffffffff16565b50610d2e81600285610e099092919063ffffffff16565b50610dc0565b63ffffffff8111610d7957610d5c601a60058460ff16901b1784610de990919063ffffffff16565b50610d7381600485610e099092919063ffffffff16565b50610dbf565b67ffffffffffffffff8111610dbe57610da5601b60058460ff16901b1784610de990919063ffffffff16565b50610dbc81600885610e099092919063ffffffff16565b505b5b5b5b5b505050565b610dcf611040565b610de183846000015151848551610e2b565b905092915050565b610df1611040565b610e018384600001515184610ee4565b905092915050565b610e11611040565b610e22848560000151518585610f32565b90509392505050565b610e33611040565b8251821115610e4157600080fd5b84602001518285011115610e6c57610e6b856002610e658860200151888701610f93565b02610faf565b5b600080865180518760208301019350808887011115610e8b5787860182525b60208701925050505b60208410610eb75780518252602082019150602081019050602084039350610e94565b60006001856020036101000a03905080198251168184511681811785525050879350505050949350505050565b610eec611040565b83602001518310610f0957610f08846002866020015102610faf565b5b8351805160208583010184815381861415610f25576001820183525b5050508390509392505050565b610f3a611040565b84602001518483011115610f5857610f5785600286850102610faf565b5b60006001836101000a0390508551838682010185831982511617815281518588011115610f855784870182525b505085915050949350505050565b600081831115610fa557829050610fa9565b8190505b92915050565b606082600001519050610fc28383610c2e565b50610fcd8382610dc7565b50505050565b6040518060a0016040528060008019168152602001600073ffffffffffffffffffffffffffffffffffffffff16815260200160007bffffffffffffffffffffffffffffffffffffffffffffffffffffffff191681526020016000815260200161103a611040565b81525090565b60405180604001604052806060815260200160008152509056fe756e61626c6520746f207472616e73666572416e6443616c6c20746f206f7261636c65536f75726365206d75737420626520746865206f7261636c65206f66207468652072657175657374a2646970667358221220000e5c0983099b8ef1ffd1db20321cdc3e5d7de7e377e3edb70880a4ea5af4d864736f6c63430006060033",
  "immutableReferences": {},
  "source": "pragma solidity >=0.5.0 <0.8.0;\n\nimport \"@chainlink/contracts/src/v0.6/ChainlinkClient.sol\";\n\ncontract EstateArea is ChainlinkClient {\n\n    address private oracle;\n    bytes32 private jobId;\n    uint256 private fee;\n\n    uint public sqftArea;\n    bytes32 public latestRequestId;\n    bytes32 public tokenHash;\n\n    mapping(bytes32 => bytes32) public receiptArea;\n    mapping(bytes32 => uint) public currentRealEstateArea;\n\n    constructor() public {\n        setPublicChainlinkToken();\n        oracle = 0xAA1DC356dc4B18f30C347798FD5379F3D77ABC5b;\n        jobId = \"a8ea1913bdbc485dacdfa323647c80ed\";\n        fee = 0.1 * 10 ** 18; // 1 LINK\n    }\n    \n    function returnSqftArea(string memory _tokenId) public {\n        Chainlink.Request memory request = buildChainlinkRequest(jobId, address(this), this.myCallback.selector);\n        request.add(\"tokenId\", _tokenId);\n        request.add(\"copyPath\", \"sqftArea\");\n        receiptArea[sendChainlinkRequestTo(oracle, request, fee)] = stringToBytes32(_tokenId);\n    }\n\n    function myCallback(bytes32 _requestId, uint _sqftArea) public recordChainlinkFulfillment(_requestId){\n        tokenHash = receiptArea[_requestId];\n        delete receiptArea[_requestId];\n        currentRealEstateArea[tokenHash] = _sqftArea;\n        latestRequestId = _requestId;\n        sqftArea = _sqftArea;\n    }\n    \n    function getAreaTokenId(string memory _tokenId) public view returns (uint256) {\n        return currentRealEstateArea[stringToBytes32(_tokenId)];\n    }\n    \n    \n    function stringToBytes32(string memory source) internal pure returns (bytes32 result) {\n        bytes memory tempEmptyStringTest = bytes(source);\n        if (tempEmptyStringTest.length == 0) {\n            return 0x0;\n        }\n        assembly {\n            result := mload(add(source, 32))\n        }\n    }\n\n    function bytes32ToStr(bytes32 _bytes32) private pure returns (string memory) {\n        bytes memory bytesArray = new bytes(32);\n        for (uint256 i; i < 32; i++) {\n            bytesArray[i] = _bytes32[i];\n        }\n        return string(bytesArray);\n    }\n}",
  "sourcePath": "/Users/newsgate/Work/RefungibleEstate/src/contracts/EstareArea.sol",
  "compiler": {
    "name": "solc",
    "version": "0.6.6+commit.6c089d02.Emscripten.clang"
  },
  "schemaVersion": "3.3.3",
  "updatedAt": "2021-02-07T09:38:37.375Z",
  "networkType": "ethereum",
  "devdoc": {
    "methods": {}
  },
  "userdoc": {
    "methods": {}
  }
}