{
  "contractName": "LandCrowdSale",
  "abi": [
    {
      "inputs": [],
      "stateMutability": "nonpayable",
      "type": "constructor"
    },
    {
      "inputs": [],
      "name": "landCounter",
      "outputs": [
        {
          "internalType": "uint256",
          "name": "",
          "type": "uint256"
        }
      ],
      "stateMutability": "view",
      "type": "function",
      "constant": true
    },
    {
      "inputs": [
        {
          "internalType": "uint256",
          "name": "",
          "type": "uint256"
        }
      ],
      "name": "nftDetails",
      "outputs": [
        {
          "internalType": "uint256",
          "name": "id",
          "type": "uint256"
        },
        {
          "internalType": "string",
          "name": "name",
          "type": "string"
        },
        {
          "internalType": "string",
          "name": "symbol",
          "type": "string"
        },
        {
          "internalType": "address",
          "name": "admin",
          "type": "address"
        },
        {
          "internalType": "address",
          "name": "erc20Holdable",
          "type": "address"
        },
        {
          "internalType": "uint256",
          "name": "sqft",
          "type": "uint256"
        },
        {
          "internalType": "uint256",
          "name": "pricePerSqft",
          "type": "uint256"
        },
        {
          "internalType": "uint256",
          "name": "monthlyRent",
          "type": "uint256"
        },
        {
          "internalType": "string",
          "name": "image",
          "type": "string"
        },
        {
          "internalType": "uint256",
          "name": "sqftRemaining",
          "type": "uint256"
        },
        {
          "internalType": "uint256",
          "name": "shareCounter",
          "type": "uint256"
        }
      ],
      "stateMutability": "view",
      "type": "function",
      "constant": true
    },
    {
      "inputs": [
        {
          "internalType": "uint256",
          "name": "",
          "type": "uint256"
        }
      ],
      "name": "nftTokens",
      "outputs": [
        {
          "internalType": "address",
          "name": "",
          "type": "address"
        }
      ],
      "stateMutability": "view",
      "type": "function",
      "constant": true
    },
    {
      "inputs": [
        {
          "internalType": "uint256",
          "name": "",
          "type": "uint256"
        }
      ],
      "name": "shareTokens",
      "outputs": [
        {
          "internalType": "contract ShareToken",
          "name": "",
          "type": "address"
        }
      ],
      "stateMutability": "view",
      "type": "function",
      "constant": true
    },
    {
      "inputs": [
        {
          "internalType": "uint256",
          "name": "",
          "type": "uint256"
        },
        {
          "internalType": "address",
          "name": "",
          "type": "address"
        }
      ],
      "name": "sharesCount",
      "outputs": [
        {
          "internalType": "uint256",
          "name": "",
          "type": "uint256"
        }
      ],
      "stateMutability": "view",
      "type": "function",
      "constant": true
    },
    {
      "inputs": [
        {
          "internalType": "uint256",
          "name": "",
          "type": "uint256"
        },
        {
          "internalType": "uint256",
          "name": "",
          "type": "uint256"
        }
      ],
      "name": "sharesdetails",
      "outputs": [
        {
          "internalType": "uint256",
          "name": "nftId",
          "type": "uint256"
        },
        {
          "internalType": "uint256",
          "name": "landBlockId",
          "type": "uint256"
        },
        {
          "internalType": "address",
          "name": "owner",
          "type": "address"
        },
        {
          "internalType": "bool",
          "name": "available",
          "type": "bool"
        },
        {
          "internalType": "bool",
          "name": "onLoan",
          "type": "bool"
        },
        {
          "internalType": "address",
          "name": "loanedOwner",
          "type": "address"
        },
        {
          "internalType": "uint256",
          "name": "cleanlinessScore",
          "type": "uint256"
        },
        {
          "internalType": "uint256",
          "name": "aavegotchiId",
          "type": "uint256"
        },
        {
          "internalType": "uint256",
          "name": "loanDeadLine",
          "type": "uint256"
        }
      ],
      "stateMutability": "view",
      "type": "function",
      "constant": true
    },
    {
      "inputs": [
        {
          "internalType": "uint256",
          "name": "",
          "type": "uint256"
        },
        {
          "internalType": "address",
          "name": "",
          "type": "address"
        },
        {
          "internalType": "uint256",
          "name": "",
          "type": "uint256"
        }
      ],
      "name": "usersSharesdetails",
      "outputs": [
        {
          "internalType": "uint256",
          "name": "nftId",
          "type": "uint256"
        },
        {
          "internalType": "uint256",
          "name": "landBlockId",
          "type": "uint256"
        },
        {
          "internalType": "address",
          "name": "owner",
          "type": "address"
        },
        {
          "internalType": "bool",
          "name": "available",
          "type": "bool"
        },
        {
          "internalType": "bool",
          "name": "onLoan",
          "type": "bool"
        },
        {
          "internalType": "address",
          "name": "loanedOwner",
          "type": "address"
        },
        {
          "internalType": "uint256",
          "name": "cleanlinessScore",
          "type": "uint256"
        },
        {
          "internalType": "uint256",
          "name": "aavegotchiId",
          "type": "uint256"
        },
        {
          "internalType": "uint256",
          "name": "loanDeadLine",
          "type": "uint256"
        }
      ],
      "stateMutability": "view",
      "type": "function",
      "constant": true
    },
    {
      "inputs": [],
      "name": "vault",
      "outputs": [
        {
          "internalType": "address payable",
          "name": "",
          "type": "address"
        }
      ],
      "stateMutability": "view",
      "type": "function",
      "constant": true
    },
    {
      "inputs": [
        {
          "internalType": "string",
          "name": "_name",
          "type": "string"
        },
        {
          "internalType": "string",
          "name": "_symbol",
          "type": "string"
        },
        {
          "internalType": "uint256",
          "name": "_totalSqft",
          "type": "uint256"
        },
        {
          "internalType": "uint256",
          "name": "_pricePerSqft",
          "type": "uint256"
        },
        {
          "internalType": "uint256",
          "name": "_monthlyRent",
          "type": "uint256"
        },
        {
          "internalType": "string",
          "name": "_image",
          "type": "string"
        },
        {
          "internalType": "address",
          "name": "nftAddress",
          "type": "address"
        }
      ],
      "name": "_mint",
      "outputs": [],
      "stateMutability": "nonpayable",
      "type": "function"
    },
    {
      "inputs": [
        {
          "internalType": "uint256",
          "name": "_nftID",
          "type": "uint256"
        },
        {
          "internalType": "uint256[]",
          "name": "_landBlockID",
          "type": "uint256[]"
        }
      ],
      "name": "buyShare",
      "outputs": [],
      "stateMutability": "payable",
      "type": "function",
      "payable": true
    }
  ],
  "bytecode": "0x6080604052600060015534801561001557600080fd5b50336000806101000a81548173ffffffffffffffffffffffffffffffffffffffff021916908373ffffffffffffffffffffffffffffffffffffffff160217905550613696806100656000396000f3fe6080604052600436106200009e5760003560e01c80638c2aa8cc11620000615780638c2aa8cc146200057b5780639e29ce1814620007bc578063abeb6ab214620007ea578063e68b094414620008ff578063fbfa77cf146200097e576200009e565b806306c660a814620000a35780631803f574146200016b57806343312e0414620002605780637d4cd84714620002df5780638217f8461462000508575b600080fd5b6200016960048036036040811015620000bb57600080fd5b810190808035906020019092919080359060200190640100000000811115620000e357600080fd5b820183602082011115620000f657600080fd5b803590602001918460208302840111640100000000831117156200011957600080fd5b919080806020026020016040519081016040528093929190818152602001838360200280828437600081840152601f19601f820116905080830192505050505050509192919290505050620009d8565b005b3480156200017857600080fd5b50620001b2600480360360408110156200019157600080fd5b81019080803590602001909291908035906020019092919050505062001542565b604051808a81526020018981526020018873ffffffffffffffffffffffffffffffffffffffff1673ffffffffffffffffffffffffffffffffffffffff16815260200187151515158152602001861515151581526020018573ffffffffffffffffffffffffffffffffffffffff1673ffffffffffffffffffffffffffffffffffffffff168152602001848152602001838152602001828152602001995050505050505050505060405180910390f35b3480156200026d57600080fd5b506200029d600480360360208110156200028657600080fd5b810190808035906020019092919050505062001605565b604051808273ffffffffffffffffffffffffffffffffffffffff1673ffffffffffffffffffffffffffffffffffffffff16815260200191505060405180910390f35b348015620002ec57600080fd5b506200031c600480360360208110156200030557600080fd5b810190808035906020019092919050505062001638565b604051808c815260200180602001806020018b73ffffffffffffffffffffffffffffffffffffffff1673ffffffffffffffffffffffffffffffffffffffff1681526020018a73ffffffffffffffffffffffffffffffffffffffff1673ffffffffffffffffffffffffffffffffffffffff1681526020018981526020018881526020018781526020018060200186815260200185815260200184810384528e818151815260200191508051906020019080838360005b83811015620003ee578082015181840152602081019050620003d1565b50505050905090810190601f1680156200041c5780820380516001836020036101000a031916815260200191505b5084810383528d818151815260200191508051906020019080838360005b83811015620004575780820151818401526020810190506200043a565b50505050905090810190601f168015620004855780820380516001836020036101000a031916815260200191505b50848103825287818151815260200191508051906020019080838360005b83811015620004c0578082015181840152602081019050620004a3565b50505050905090810190601f168015620004ee5780820380516001836020036101000a031916815260200191505b509e50505050505050505050505050505060405180910390f35b3480156200051557600080fd5b5062000565600480360360408110156200052e57600080fd5b8101908080359060200190929190803573ffffffffffffffffffffffffffffffffffffffff169060200190929190505050620018a6565b6040518082815260200191505060405180910390f35b3480156200058857600080fd5b50620007ba600480360360e0811015620005a157600080fd5b8101908080359060200190640100000000811115620005bf57600080fd5b820183602082011115620005d257600080fd5b80359060200191846001830284011164010000000083111715620005f557600080fd5b91908080601f016020809104026020016040519081016040528093929190818152602001838380828437600081840152601f19601f820116905080830192505050505050509192919290803590602001906401000000008111156200065957600080fd5b8201836020820111156200066c57600080fd5b803590602001918460018302840111640100000000831117156200068f57600080fd5b91908080601f016020809104026020016040519081016040528093929190818152602001838380828437600081840152601f19601f820116905080830192505050505050509192919290803590602001909291908035906020019092919080359060200190929190803590602001906401000000008111156200071157600080fd5b8201836020820111156200072457600080fd5b803590602001918460018302840111640100000000831117156200074757600080fd5b91908080601f016020809104026020016040519081016040528093929190818152602001838380828437600081840152601f19601f820116905080830192505050505050509192919290803573ffffffffffffffffffffffffffffffffffffffff169060200190929190505050620018cb565b005b348015620007c957600080fd5b50620007d462001c67565b6040518082815260200191505060405180910390f35b348015620007f757600080fd5b5062000851600480360360608110156200081057600080fd5b8101908080359060200190929190803573ffffffffffffffffffffffffffffffffffffffff1690602001909291908035906020019092919050505062001c6d565b604051808a81526020018981526020018873ffffffffffffffffffffffffffffffffffffffff1673ffffffffffffffffffffffffffffffffffffffff16815260200187151515158152602001861515151581526020018573ffffffffffffffffffffffffffffffffffffffff1673ffffffffffffffffffffffffffffffffffffffff168152602001848152602001838152602001828152602001995050505050505050505060405180910390f35b3480156200090c57600080fd5b506200093c600480360360208110156200092557600080fd5b810190808035906020019092919050505062001d3d565b604051808273ffffffffffffffffffffffffffffffffffffffff1673ffffffffffffffffffffffffffffffffffffffff16815260200191505060405180910390f35b3480156200098b57600080fd5b506200099662001d70565b604051808273ffffffffffffffffffffffffffffffffffffffff1673ffffffffffffffffffffffffffffffffffffffff16815260200191505060405180910390f35b6000809054906101000a900473ffffffffffffffffffffffffffffffffffffffff1673ffffffffffffffffffffffffffffffffffffffff163373ffffffffffffffffffffffffffffffffffffffff16141562000a9c576040517f08c379a00000000000000000000000000000000000000000000000000000000081526004018080602001828103825260178152602001807f41646d696e2063616e6e6f74206275792073686172657300000000000000000081525060200191505060405180910390fd5b60008151905062000aac62001d95565b600460008581526020019081526020016000206040518061016001604052908160008201548152602001600182018054600181600116156101000203166002900480601f01602080910402602001604051908101604052809291908181526020018280546001816001161561010002031660029004801562000b725780601f1062000b465761010080835404028352916020019162000b72565b820191906000526020600020905b81548152906001019060200180831162000b5457829003601f168201915b50505050508152602001600282018054600181600116156101000203166002900480601f01602080910402602001604051908101604052809291908181526020018280546001816001161561010002031660029004801562000c185780601f1062000bec5761010080835404028352916020019162000c18565b820191906000526020600020905b81548152906001019060200180831162000bfa57829003601f168201915b505050505081526020016003820160009054906101000a900473ffffffffffffffffffffffffffffffffffffffff1673ffffffffffffffffffffffffffffffffffffffff1673ffffffffffffffffffffffffffffffffffffffff1681526020016004820160009054906101000a900473ffffffffffffffffffffffffffffffffffffffff1673ffffffffffffffffffffffffffffffffffffffff1673ffffffffffffffffffffffffffffffffffffffff168152602001600582015481526020016006820154815260200160078201548152602001600882018054600181600116156101000203166002900480601f01602080910402602001604051908101604052809291908181526020018280546001816001161561010002031660029004801562000d885780601f1062000d5c5761010080835404028352916020019162000d88565b820191906000526020600020905b81548152906001019060200180831162000d6a57829003601f168201915b5050505050815260200160098201548152602001600a82015481525050905060018161014001510181610140018181525050818161012001510381610120018181525050806004600086815260200190815260200160002060008201518160000155602082015181600101908051906020019062000e0892919062001e1b565b50604082015181600201908051906020019062000e2792919062001e1b565b5060608201518160030160006101000a81548173ffffffffffffffffffffffffffffffffffffffff021916908373ffffffffffffffffffffffffffffffffffffffff16021790555060808201518160040160006101000a81548173ffffffffffffffffffffffffffffffffffffffff021916908373ffffffffffffffffffffffffffffffffffffffff16021790555060a0820151816005015560c0820151816006015560e0820151816007015561010082015181600801908051906020019062000ef392919062001e1b565b50610120820151816009015561014082015181600a015590505060006007600086815260200190815260200160002060003373ffffffffffffffffffffffffffffffffffffffff1673ffffffffffffffffffffffffffffffffffffffff16815260200190815260200160002054905060008090505b84518110156200134d576005600087815260200190815260200160002060003373ffffffffffffffffffffffffffffffffffffffff1673ffffffffffffffffffffffffffffffffffffffff16815260200190815260200160002060405180610120016040528088815260200187848151811062000fe157fe5b602002602001015181526020013373ffffffffffffffffffffffffffffffffffffffff1681526020016000151581526020016000151581526020013373ffffffffffffffffffffffffffffffffffffffff168152602001600081526020016000815260200160008152509080600181540180825580915050600190039060005260206000209060070201600090919091909150600082015181600001556020820151816001015560408201518160020160006101000a81548173ffffffffffffffffffffffffffffffffffffffff021916908373ffffffffffffffffffffffffffffffffffffffff16021790555060608201518160020160146101000a81548160ff02191690831515021790555060808201518160020160156101000a81548160ff02191690831515021790555060a08201518160030160006101000a81548173ffffffffffffffffffffffffffffffffffffffff021916908373ffffffffffffffffffffffffffffffffffffffff16021790555060c0820151816004015560e082015181600501556101008201518160060155505060066000878152602001908152602001600020604051806101200160405280888152602001878481518110620011a957fe5b602002602001015181526020013373ffffffffffffffffffffffffffffffffffffffff1681526020016000151581526020016000151581526020013373ffffffffffffffffffffffffffffffffffffffff168152602001600081526020016000815260200160008152509080600181540180825580915050600190039060005260206000209060070201600090919091909150600082015181600001556020820151816001015560408201518160020160006101000a81548173ffffffffffffffffffffffffffffffffffffffff021916908373ffffffffffffffffffffffffffffffffffffffff16021790555060608201518160020160146101000a81548160ff02191690831515021790555060808201518160020160156101000a81548160ff02191690831515021790555060a08201518160030160006101000a81548173ffffffffffffffffffffffffffffffffffffffff021916908373ffffffffffffffffffffffffffffffffffffffff16021790555060c0820151816004015560e0820151816005015561010082015181600601555050808060010191505062000f68565b506000811115620013b8578281019050806007600087815260200190815260200160002060003373ffffffffffffffffffffffffffffffffffffffff1673ffffffffffffffffffffffffffffffffffffffff168152602001908152602001600020819055506200140e565b826007600087815260200190815260200160002060003373ffffffffffffffffffffffffffffffffffffffff1673ffffffffffffffffffffffffffffffffffffffff168152602001908152602001600020819055505b6002600086815260200190815260200160002060009054906101000a900473ffffffffffffffffffffffffffffffffffffffff1673ffffffffffffffffffffffffffffffffffffffff166323b872dd3033866040518463ffffffff1660e01b8152600401808473ffffffffffffffffffffffffffffffffffffffff1673ffffffffffffffffffffffffffffffffffffffff1681526020018373ffffffffffffffffffffffffffffffffffffffff1673ffffffffffffffffffffffffffffffffffffffff1681526020018281526020019350505050602060405180830381600087803b158015620014fd57600080fd5b505af115801562001512573d6000803e3d6000fd5b505050506040513d60208110156200152957600080fd5b8101908080519060200190929190505050505050505050565b600660205281600052604060002081815481106200155c57fe5b9060005260206000209060070201600091509150508060000154908060010154908060020160009054906101000a900473ffffffffffffffffffffffffffffffffffffffff16908060020160149054906101000a900460ff16908060020160159054906101000a900460ff16908060030160009054906101000a900473ffffffffffffffffffffffffffffffffffffffff16908060040154908060050154908060060154905089565b60026020528060005260406000206000915054906101000a900473ffffffffffffffffffffffffffffffffffffffff1681565b6004602052806000526040600020600091509050806000015490806001018054600181600116156101000203166002900480601f016020809104026020016040519081016040528092919081815260200182805460018160011615610100020316600290048015620016ee5780601f10620016c257610100808354040283529160200191620016ee565b820191906000526020600020905b815481529060010190602001808311620016d057829003601f168201915b505050505090806002018054600181600116156101000203166002900480601f016020809104026020016040519081016040528092919081815260200182805460018160011615610100020316600290048015620017905780601f10620017645761010080835404028352916020019162001790565b820191906000526020600020905b8154815290600101906020018083116200177257829003601f168201915b5050505050908060030160009054906101000a900473ffffffffffffffffffffffffffffffffffffffff16908060040160009054906101000a900473ffffffffffffffffffffffffffffffffffffffff1690806005015490806006015490806007015490806008018054600181600116156101000203166002900480601f016020809104026020016040519081016040528092919081815260200182805460018160011615610100020316600290048015620018905780601f10620018645761010080835404028352916020019162001890565b820191906000526020600020905b8154815290600101906020018083116200187257829003601f168201915b50505050509080600901549080600a015490508b565b6007602052816000526040600020602052806000526040600020600091509150505481565b6001600081548092919060010191905055508060036000600154815260200190815260200160002060006101000a81548173ffffffffffffffffffffffffffffffffffffffff021916908373ffffffffffffffffffffffffffffffffffffffff1602179055506000878787604051620019449062001ea2565b808060200180602001848152602001838103835286818151815260200191508051906020019080838360005b838110156200198d57808201518184015260208101905062001970565b50505050905090810190601f168015620019bb5780820380516001836020036101000a031916815260200191505b50838103825285818151815260200191508051906020019080838360005b83811015620019f6578082015181840152602081019050620019d9565b50505050905090810190601f16801562001a245780820380516001836020036101000a031916815260200191505b5095505050505050604051809103906000f08015801562001a49573d6000803e3d6000fd5b5090508060026000600154815260200190815260200160002060006101000a81548173ffffffffffffffffffffffffffffffffffffffff021916908373ffffffffffffffffffffffffffffffffffffffff16021790555060405180610160016040528060015481526020018981526020018881526020013373ffffffffffffffffffffffffffffffffffffffff1681526020018273ffffffffffffffffffffffffffffffffffffffff168152602001878152602001868152602001858152602001848152602001878152602001600081525060046000600154815260200190815260200160002060008201518160000155602082015181600101908051906020019062001b5892919062001e1b565b50604082015181600201908051906020019062001b7792919062001e1b565b5060608201518160030160006101000a81548173ffffffffffffffffffffffffffffffffffffffff021916908373ffffffffffffffffffffffffffffffffffffffff16021790555060808201518160040160006101000a81548173ffffffffffffffffffffffffffffffffffffffff021916908373ffffffffffffffffffffffffffffffffffffffff16021790555060a0820151816005015560c0820151816006015560e0820151816007015561010082015181600801908051906020019062001c4392919062001e1b565b50610120820151816009015561014082015181600a01559050505050505050505050565b60015481565b6005602052826000526040600020602052816000526040600020818154811062001c9357fe5b906000526020600020906007020160009250925050508060000154908060010154908060020160009054906101000a900473ffffffffffffffffffffffffffffffffffffffff16908060020160149054906101000a900460ff16908060020160159054906101000a900460ff16908060030160009054906101000a900473ffffffffffffffffffffffffffffffffffffffff16908060040154908060050154908060060154905089565b60036020528060005260406000206000915054906101000a900473ffffffffffffffffffffffffffffffffffffffff1681565b6000809054906101000a900473ffffffffffffffffffffffffffffffffffffffff1681565b604051806101600160405280600081526020016060815260200160608152602001600073ffffffffffffffffffffffffffffffffffffffff168152602001600073ffffffffffffffffffffffffffffffffffffffff1681526020016000815260200160008152602001600081526020016060815260200160008152602001600081525090565b828054600181600116156101000203166002900490600052602060002090601f016020900481019282601f1062001e5e57805160ff191683800117855562001e8f565b8280016001018555821562001e8f579182015b8281111562001e8e57825182559160200191906001019062001e71565b5b50905062001e9e919062001eb0565b5090565b6117888062001ed983390190565b62001ed591905b8082111562001ed157600081600090555060010162001eb7565b5090565b9056fe60806040523480156200001157600080fd5b506040516200178838038062001788833981810160405260608110156200003757600080fd5b81019080805160405193929190846401000000008211156200005857600080fd5b838201915060208201858111156200006f57600080fd5b82518660018202830111640100000000821117156200008d57600080fd5b8083526020830192505050908051906020019080838360005b83811015620000c3578082015181840152602081019050620000a6565b50505050905090810190601f168015620000f15780820380516001836020036101000a031916815260200191505b50604052602001805160405193929190846401000000008211156200011557600080fd5b838201915060208201858111156200012c57600080fd5b82518660018202830111640100000000821117156200014a57600080fd5b8083526020830192505050908051906020019080838360005b838110156200018057808201518184015260208101905062000163565b50505050905090810190601f168015620001ae5780820380516001836020036101000a031916815260200191505b506040526020018051906020019092919050505080600381905550600354600460003373ffffffffffffffffffffffffffffffffffffffff1673ffffffffffffffffffffffffffffffffffffffff168152602001908152602001600020819055508260009080519060200190620002279291906200034f565b508160019080519060200190620002409291906200034f565b506200025333826200025d60201b60201c565b50505050620003fe565b600081600560003373ffffffffffffffffffffffffffffffffffffffff1673ffffffffffffffffffffffffffffffffffffffff16815260200190815260200160002060008573ffffffffffffffffffffffffffffffffffffffff1673ffffffffffffffffffffffffffffffffffffffff168152602001908152602001600020819055508273ffffffffffffffffffffffffffffffffffffffff163373ffffffffffffffffffffffffffffffffffffffff167f8c5be1e5ebec7d5bd14f71427d1e84f3dd0314c0f7b2291e5b200ac8c7c3b925846040518082815260200191505060405180910390a36001905092915050565b828054600181600116156101000203166002900490600052602060002090601f016020900481019282601f106200039257805160ff1916838001178555620003c3565b82800160010185558215620003c3579182015b82811115620003c2578251825591602001919060010190620003a5565b5b509050620003d29190620003d6565b5090565b620003fb91905b80821115620003f7576000816000905550600101620003dd565b5090565b90565b61137a806200040e6000396000f3fe608060405234801561001057600080fd5b50600436106100a95760003560e01c80635f9fbc2d116100715780635f9fbc2d146102be57806370a08231146103445780637ff9b5961461039c57806395d89b41146103ba578063a9059cbb1461043d578063dd62ed3e146104a3576100a9565b806306fdde03146100ae578063095ea7b31461013157806318160ddd1461019757806323b872dd146101b55780635ea5cabe1461023b575b600080fd5b6100b661051b565b6040518080602001828103825283818151815260200191508051906020019080838360005b838110156100f65780820151818401526020810190506100db565b50505050905090810190601f1680156101235780820380516001836020036101000a031916815260200191505b509250505060405180910390f35b61017d6004803603604081101561014757600080fd5b81019080803573ffffffffffffffffffffffffffffffffffffffff169060200190929190803590602001909291905050506105b9565b604051808215151515815260200191505060405180910390f35b61019f6106ab565b6040518082815260200191505060405180910390f35b610221600480360360608110156101cb57600080fd5b81019080803573ffffffffffffffffffffffffffffffffffffffff169060200190929190803573ffffffffffffffffffffffffffffffffffffffff169060200190929190803590602001909291905050506106b5565b604051808215151515815260200191505060405180910390f35b610243610a35565b6040518080602001828103825283818151815260200191508051906020019080838360005b83811015610283578082015181840152602081019050610268565b50505050905090810190601f1680156102b05780820380516001836020036101000a031916815260200191505b509250505060405180910390f35b61032a600480360360608110156102d457600080fd5b81019080803573ffffffffffffffffffffffffffffffffffffffff169060200190929190803573ffffffffffffffffffffffffffffffffffffffff16906020019092919080359060200190929190505050610ad7565b604051808215151515815260200191505060405180910390f35b6103866004803603602081101561035a57600080fd5b81019080803573ffffffffffffffffffffffffffffffffffffffff169060200190929190505050610e57565b6040518082815260200191505060405180910390f35b6103a4610ea0565b6040518082815260200191505060405180910390f35b6103c2610ea6565b6040518080602001828103825283818151815260200191508051906020019080838360005b838110156104025780820151818401526020810190506103e7565b50505050905090810190601f16801561042f5780820380516001836020036101000a031916815260200191505b509250505060405180910390f35b6104896004803603604081101561045357600080fd5b81019080803573ffffffffffffffffffffffffffffffffffffffff16906020019092919080359060200190929190505050610f44565b604051808215151515815260200191505060405180910390f35b610505600480360360408110156104b957600080fd5b81019080803573ffffffffffffffffffffffffffffffffffffffff169060200190929190803573ffffffffffffffffffffffffffffffffffffffff16906020019092919050505061112b565b6040518082815260200191505060405180910390f35b60008054600181600116156101000203166002900480601f0160208091040260200160405190810160405280929190818152602001828054600181600116156101000203166002900480156105b15780601f10610586576101008083540402835291602001916105b1565b820191906000526020600020905b81548152906001019060200180831161059457829003601f168201915b505050505081565b600081600560003373ffffffffffffffffffffffffffffffffffffffff1673ffffffffffffffffffffffffffffffffffffffff16815260200190815260200160002060008573ffffffffffffffffffffffffffffffffffffffff1673ffffffffffffffffffffffffffffffffffffffff168152602001908152602001600020819055508273ffffffffffffffffffffffffffffffffffffffff163373ffffffffffffffffffffffffffffffffffffffff167f8c5be1e5ebec7d5bd14f71427d1e84f3dd0314c0f7b2291e5b200ac8c7c3b925846040518082815260200191505060405180910390a36001905092915050565b6000600354905090565b6000600460008573ffffffffffffffffffffffffffffffffffffffff1673ffffffffffffffffffffffffffffffffffffffff1681526020019081526020016000205482111561070357600080fd5b600560008573ffffffffffffffffffffffffffffffffffffffff1673ffffffffffffffffffffffffffffffffffffffff16815260200190815260200160002060003373ffffffffffffffffffffffffffffffffffffffff1673ffffffffffffffffffffffffffffffffffffffff1681526020019081526020016000205482111561078c57600080fd5b6107de82600460008773ffffffffffffffffffffffffffffffffffffffff1673ffffffffffffffffffffffffffffffffffffffff168152602001908152602001600020546111b290919063ffffffff16565b600460008673ffffffffffffffffffffffffffffffffffffffff1673ffffffffffffffffffffffffffffffffffffffff168152602001908152602001600020819055506108b082600560008773ffffffffffffffffffffffffffffffffffffffff1673ffffffffffffffffffffffffffffffffffffffff16815260200190815260200160002060003373ffffffffffffffffffffffffffffffffffffffff1673ffffffffffffffffffffffffffffffffffffffff168152602001908152602001600020546111b290919063ffffffff16565b600560008673ffffffffffffffffffffffffffffffffffffffff1673ffffffffffffffffffffffffffffffffffffffff16815260200190815260200160002060003373ffffffffffffffffffffffffffffffffffffffff1673ffffffffffffffffffffffffffffffffffffffff1681526020019081526020016000208190555061098282600460008673ffffffffffffffffffffffffffffffffffffffff1673ffffffffffffffffffffffffffffffffffffffff168152602001908152602001600020546111fc90919063ffffffff16565b600460008573ffffffffffffffffffffffffffffffffffffffff1673ffffffffffffffffffffffffffffffffffffffff168152602001908152602001600020819055508273ffffffffffffffffffffffffffffffffffffffff168473ffffffffffffffffffffffffffffffffffffffff167fddf252ad1be2c89b69c2b068fc378daa952ba7f163c4a11628f55a4df523b3ef846040518082815260200191505060405180910390a3600190509392505050565b606060008054600181600116156101000203166002900480601f016020809104026020016040519081016040528092919081815260200182805460018160011615610100020316600290048015610acd5780601f10610aa257610100808354040283529160200191610acd565b820191906000526020600020905b815481529060010190602001808311610ab057829003601f168201915b5050505050905090565b6000600460008573ffffffffffffffffffffffffffffffffffffffff1673ffffffffffffffffffffffffffffffffffffffff16815260200190815260200160002054821115610b2557600080fd5b600560008573ffffffffffffffffffffffffffffffffffffffff1673ffffffffffffffffffffffffffffffffffffffff16815260200190815260200160002060003373ffffffffffffffffffffffffffffffffffffffff1673ffffffffffffffffffffffffffffffffffffffff16815260200190815260200160002054821115610bae57600080fd5b610c0082600460008773ffffffffffffffffffffffffffffffffffffffff1673ffffffffffffffffffffffffffffffffffffffff168152602001908152602001600020546111b290919063ffffffff16565b600460008673ffffffffffffffffffffffffffffffffffffffff1673ffffffffffffffffffffffffffffffffffffffff16815260200190815260200160002081905550610cd282600560008773ffffffffffffffffffffffffffffffffffffffff1673ffffffffffffffffffffffffffffffffffffffff16815260200190815260200160002060003373ffffffffffffffffffffffffffffffffffffffff1673ffffffffffffffffffffffffffffffffffffffff168152602001908152602001600020546111b290919063ffffffff16565b600560008673ffffffffffffffffffffffffffffffffffffffff1673ffffffffffffffffffffffffffffffffffffffff16815260200190815260200160002060003373ffffffffffffffffffffffffffffffffffffffff1673ffffffffffffffffffffffffffffffffffffffff16815260200190815260200160002081905550610da482600460008673ffffffffffffffffffffffffffffffffffffffff1673ffffffffffffffffffffffffffffffffffffffff168152602001908152602001600020546111fc90919063ffffffff16565b600460008573ffffffffffffffffffffffffffffffffffffffff1673ffffffffffffffffffffffffffffffffffffffff168152602001908152602001600020819055508273ffffffffffffffffffffffffffffffffffffffff168473ffffffffffffffffffffffffffffffffffffffff167fddf252ad1be2c89b69c2b068fc378daa952ba7f163c4a11628f55a4df523b3ef846040518082815260200191505060405180910390a3600190509392505050565b6000600460008373ffffffffffffffffffffffffffffffffffffffff1673ffffffffffffffffffffffffffffffffffffffff168152602001908152602001600020549050919050565b60025481565b60018054600181600116156101000203166002900480601f016020809104026020016040519081016040528092919081815260200182805460018160011615610100020316600290048015610f3c5780601f10610f1157610100808354040283529160200191610f3c565b820191906000526020600020905b815481529060010190602001808311610f1f57829003601f168201915b505050505081565b6000600460003373ffffffffffffffffffffffffffffffffffffffff1673ffffffffffffffffffffffffffffffffffffffff16815260200190815260200160002054821115610f9257600080fd5b610fe482600460003373ffffffffffffffffffffffffffffffffffffffff1673ffffffffffffffffffffffffffffffffffffffff168152602001908152602001600020546111b290919063ffffffff16565b600460003373ffffffffffffffffffffffffffffffffffffffff1673ffffffffffffffffffffffffffffffffffffffff1681526020019081526020016000208190555061107982600460008673ffffffffffffffffffffffffffffffffffffffff1673ffffffffffffffffffffffffffffffffffffffff168152602001908152602001600020546111fc90919063ffffffff16565b600460008573ffffffffffffffffffffffffffffffffffffffff1673ffffffffffffffffffffffffffffffffffffffff168152602001908152602001600020819055508273ffffffffffffffffffffffffffffffffffffffff163373ffffffffffffffffffffffffffffffffffffffff167fddf252ad1be2c89b69c2b068fc378daa952ba7f163c4a11628f55a4df523b3ef846040518082815260200191505060405180910390a36001905092915050565b6000600560008473ffffffffffffffffffffffffffffffffffffffff1673ffffffffffffffffffffffffffffffffffffffff16815260200190815260200160002060008373ffffffffffffffffffffffffffffffffffffffff1673ffffffffffffffffffffffffffffffffffffffff16815260200190815260200160002054905092915050565b60006111f483836040518060400160405280601e81526020017f536166654d6174683a207375627472616374696f6e206f766572666c6f770000815250611284565b905092915050565b60008082840190508381101561127a576040517f08c379a000000000000000000000000000000000000000000000000000000000815260040180806020018281038252601b8152602001807f536166654d6174683a206164646974696f6e206f766572666c6f77000000000081525060200191505060405180910390fd5b8091505092915050565b6000838311158290611331576040517f08c379a00000000000000000000000000000000000000000000000000000000081526004018080602001828103825283818151815260200191508051906020019080838360005b838110156112f65780820151818401526020810190506112db565b50505050905090810190601f1680156113235780820380516001836020036101000a031916815260200191505b509250505060405180910390fd5b506000838503905080915050939250505056fea264697066735822122017ce18f2f5e3b25a4932fa9cc881a3285d0c7481bea4a34563b9bdcbbb78f80764736f6c63430006060033a2646970667358221220444fe8a602e5510f3632442de4bd5828faa95bcac26edc2fec9832e967b1fca264736f6c63430006060033",
  "immutableReferences": {},
  "source": "// SPDX-License-Identifier: MIT\n\npragma solidity >=0.6.0 <0.7.5;\n\nimport \"@openzeppelin/contracts/token/ERC721/ERC721.sol\";\n\nimport \"./token/SharesToken.sol\";\n\ncontract LandCrowdSale {\n    address payable public vault;\n    uint256 public landCounter = 0;\n\n    struct NFTDetailsStruct {\n        uint256 id;\n        string name;\n        string symbol;\n        address admin;\n        address erc20Holdable;\n        uint256 sqft;\n        uint256 pricePerSqft;\n        uint256 monthlyRent;\n        string image;\n        uint256 sqftRemaining;\n        uint256 shareCounter;\n    }\n\n    struct NFTSharesStruct {\n        uint256 nftId;\n        uint256 landBlockId;\n        address owner;\n        bool available;\n        bool onLoan;\n        address loanedOwner;\n        uint256 cleanlinessScore;\n        uint256 aavegotchiId;\n        uint256 loanDeadLine;\n    }\n\n    mapping(uint256 => ShareToken) public shareTokens;\n    mapping(uint256 => address) public nftTokens;\n    mapping(uint256 => NFTDetailsStruct) public nftDetails;\n    mapping(uint256 => mapping(address => NFTSharesStruct[]))\n        public usersSharesdetails;\n    mapping(uint256 => NFTSharesStruct[]) public sharesdetails;\n    mapping(uint256 => mapping(address => uint256)) public sharesCount;\n\n    constructor() public {\n        vault = msg.sender;\n    }\n\n    function _mint(\n        string memory _name,\n        string memory _symbol,\n        uint256 _totalSqft,\n        uint256 _pricePerSqft,\n        uint256 _monthlyRent,\n        string memory _image,\n        address nftAddress\n    ) public {\n        landCounter++;\n\n        nftTokens[landCounter] = nftAddress;\n\n        ShareToken _shareToken = new ShareToken(_name, _symbol, _totalSqft);\n        shareTokens[landCounter] = _shareToken;\n\n        nftDetails[landCounter] = NFTDetailsStruct(\n            landCounter,\n            _name,\n            _symbol,\n            msg.sender,\n            address(_shareToken),\n            _totalSqft,\n            _pricePerSqft,\n            _monthlyRent,\n            _image,\n            _totalSqft,\n            0\n        );\n    }\n\n    function buyShare(uint256 _nftID, uint256[] memory _landBlockID)\n        public\n        payable\n    {\n        require(msg.sender != vault, \"Admin cannot buy shares\");\n\n        uint256 _shareAmount = _landBlockID.length;\n        NFTDetailsStruct memory _nftDetails = nftDetails[_nftID];\n        _nftDetails.shareCounter = _nftDetails.shareCounter + 1;\n        _nftDetails.sqftRemaining = _nftDetails.sqftRemaining - _shareAmount;\n        nftDetails[_nftID] = _nftDetails;\n\n        uint256 userShare = sharesCount[_nftID][msg.sender];\n\n        for (uint256 i = 0; i < _landBlockID.length; i++) {\n            usersSharesdetails[_nftID][msg.sender].push(\n                NFTSharesStruct(\n                    _nftID,\n                    _landBlockID[i],\n                    msg.sender,\n                    false,\n                    false,\n                    msg.sender,\n                    0,\n                    0,\n                    0\n                )\n            );\n            sharesdetails[_nftID].push(\n                NFTSharesStruct(\n                    _nftID,\n                    _landBlockID[i],\n                    msg.sender,\n                    false,\n                    false,\n                    msg.sender,\n                    0,\n                    0,\n                    0\n                )\n            );\n        }\n\n        if (userShare > 0) {\n            userShare = userShare + _shareAmount;\n            sharesCount[_nftID][msg.sender] = userShare;\n        } else {\n            sharesCount[_nftID][msg.sender] = _shareAmount;\n        }\n\n        // REF.approve(msg.sender, _amount);\n        // REF.transferFrom(msg.sender, vault, _amount);\n        shareTokens[_nftID].transferFrom(\n            address(this),\n            msg.sender,\n            _shareAmount\n        );\n    }\n}\n",
  "sourcePath": "/Users/newsgate/Work/RefungibleEstate/src/contracts/LandCrowdSale.sol",
  "compiler": {
    "name": "solc",
    "version": "0.6.6+commit.6c089d02.Emscripten.clang"
  },
  "schemaVersion": "3.3.3",
  "updatedAt": "2021-02-01T15:38:07.276Z",
  "networkType": "ethereum",
  "devdoc": {
    "methods": {}
  },
  "userdoc": {
    "methods": {}
  }
}